{"abi":[{"type":"constructor","inputs":[{"name":"_poolManager","type":"address","internalType":"contract IPoolManager"},{"name":"_weth","type":"address","internalType":"address"}],"stateMutability":"nonpayable"},{"type":"function","name":"addLiquidity","inputs":[{"name":"poolKey","type":"tuple","internalType":"struct PoolKey","components":[{"name":"currency0","type":"address","internalType":"Currency"},{"name":"currency1","type":"address","internalType":"Currency"},{"name":"fee","type":"uint24","internalType":"uint24"},{"name":"tickSpacing","type":"int24","internalType":"int24"},{"name":"hooks","type":"address","internalType":"contract IHooks"}]},{"name":"amount0","type":"uint256","internalType":"uint256"},{"name":"amount1","type":"uint256","internalType":"uint256"},{"name":"tickLower","type":"int24","internalType":"int24"},{"name":"tickUpper","type":"int24","internalType":"int24"},{"name":"salt","type":"bytes32","internalType":"bytes32"}],"outputs":[],"stateMutability":"nonpayable"},{"type":"function","name":"computeSqrtPriceX96","inputs":[{"name":"poolKey","type":"tuple","internalType":"struct PoolKey","components":[{"name":"currency0","type":"address","internalType":"Currency"},{"name":"currency1","type":"address","internalType":"Currency"},{"name":"fee","type":"uint24","internalType":"uint24"},{"name":"tickSpacing","type":"int24","internalType":"int24"},{"name":"hooks","type":"address","internalType":"contract IHooks"}]}],"outputs":[{"name":"sqrtPriceX96","type":"uint160","internalType":"uint160"}],"stateMutability":"view"},{"type":"function","name":"getLatestPrice","inputs":[{"name":"token","type":"address","internalType":"address"}],"outputs":[{"name":"","type":"uint256","internalType":"uint256"}],"stateMutability":"view"},{"type":"function","name":"getLiquidityForAmounts","inputs":[{"name":"sqrtPriceX96","type":"uint160","internalType":"uint160"},{"name":"sqrtRatioAX96","type":"uint160","internalType":"uint160"},{"name":"sqrtRatioBX96","type":"uint160","internalType":"uint160"},{"name":"amount0","type":"uint256","internalType":"uint256"},{"name":"amount1","type":"uint256","internalType":"uint256"}],"outputs":[{"name":"liquidity","type":"uint128","internalType":"uint128"}],"stateMutability":"pure"},{"type":"function","name":"getPriceFeed","inputs":[{"name":"token","type":"address","internalType":"address"}],"outputs":[{"name":"","type":"address","internalType":"address"}],"stateMutability":"view"},{"type":"function","name":"getTotalLiquidity","inputs":[{"name":"token0","type":"address","internalType":"address"},{"name":"token1","type":"address","internalType":"address"}],"outputs":[{"name":"","type":"uint256","internalType":"uint256"},{"name":"","type":"uint256","internalType":"uint256"}],"stateMutability":"view"},{"type":"function","name":"initializePoolWithChainlink","inputs":[{"name":"poolKey","type":"tuple","internalType":"struct PoolKey","components":[{"name":"currency0","type":"address","internalType":"Currency"},{"name":"currency1","type":"address","internalType":"Currency"},{"name":"fee","type":"uint24","internalType":"uint24"},{"name":"tickSpacing","type":"int24","internalType":"int24"},{"name":"hooks","type":"address","internalType":"contract IHooks"}]}],"outputs":[],"stateMutability":"nonpayable"},{"type":"function","name":"poolManager","inputs":[],"outputs":[{"name":"","type":"address","internalType":"contract IPoolManager"}],"stateMutability":"view"},{"type":"function","name":"priceFeeds","inputs":[{"name":"","type":"address","internalType":"address"}],"outputs":[{"name":"","type":"address","internalType":"address"}],"stateMutability":"view"},{"type":"function","name":"removeLiquidity","inputs":[{"name":"poolKey","type":"tuple","internalType":"struct PoolKey","components":[{"name":"currency0","type":"address","internalType":"Currency"},{"name":"currency1","type":"address","internalType":"Currency"},{"name":"fee","type":"uint24","internalType":"uint24"},{"name":"tickSpacing","type":"int24","internalType":"int24"},{"name":"hooks","type":"address","internalType":"contract IHooks"}]},{"name":"liquidity","type":"uint256","internalType":"uint256"},{"name":"tickLower","type":"int24","internalType":"int24"},{"name":"tickUpper","type":"int24","internalType":"int24"},{"name":"salt","type":"bytes32","internalType":"bytes32"}],"outputs":[],"stateMutability":"nonpayable"},{"type":"function","name":"setPriceFeed","inputs":[{"name":"token","type":"address","internalType":"address"},{"name":"feed","type":"address","internalType":"address"}],"outputs":[],"stateMutability":"nonpayable"},{"type":"function","name":"swapExactInputSingle","inputs":[{"name":"poolKey","type":"tuple","internalType":"struct PoolKey","components":[{"name":"currency0","type":"address","internalType":"Currency"},{"name":"currency1","type":"address","internalType":"Currency"},{"name":"fee","type":"uint24","internalType":"uint24"},{"name":"tickSpacing","type":"int24","internalType":"int24"},{"name":"hooks","type":"address","internalType":"contract IHooks"}]},{"name":"amountIn","type":"uint256","internalType":"uint256"},{"name":"deadline","type":"uint256","internalType":"uint256"},{"name":"maxSlippage","type":"uint256","internalType":"uint256"}],"outputs":[],"stateMutability":"nonpayable"},{"type":"function","name":"totalLiquidity","inputs":[{"name":"","type":"address","internalType":"address"},{"name":"","type":"address","internalType":"address"}],"outputs":[{"name":"","type":"uint256","internalType":"uint256"}],"stateMutability":"view"},{"type":"function","name":"unlockCallback","inputs":[{"name":"data","type":"bytes","internalType":"bytes"}],"outputs":[{"name":"","type":"bytes","internalType":"bytes"}],"stateMutability":"nonpayable"},{"type":"function","name":"weth","inputs":[],"outputs":[{"name":"","type":"address","internalType":"address"}],"stateMutability":"view"},{"type":"event","name":"LiquidityAdded","inputs":[{"name":"token0","type":"address","indexed":true,"internalType":"address"},{"name":"token1","type":"address","indexed":true,"internalType":"address"},{"name":"sender","type":"address","indexed":true,"internalType":"address"},{"name":"amount0","type":"uint256","indexed":false,"internalType":"uint256"},{"name":"amount1","type":"uint256","indexed":false,"internalType":"uint256"}],"anonymous":false},{"type":"event","name":"LiquidityRemoved","inputs":[{"name":"token0","type":"address","indexed":true,"internalType":"address"},{"name":"token1","type":"address","indexed":true,"internalType":"address"},{"name":"sender","type":"address","indexed":true,"internalType":"address"},{"name":"liquidity","type":"uint256","indexed":false,"internalType":"uint256"}],"anonymous":false},{"type":"event","name":"PoolInitialized","inputs":[{"name":"token0","type":"address","indexed":true,"internalType":"address"},{"name":"token1","type":"address","indexed":true,"internalType":"address"},{"name":"sqrtPriceX96","type":"uint160","indexed":false,"internalType":"uint160"}],"anonymous":false},{"type":"event","name":"SwapExecuted","inputs":[{"name":"token0","type":"address","indexed":true,"internalType":"address"},{"name":"token1","type":"address","indexed":true,"internalType":"address"},{"name":"sender","type":"address","indexed":true,"internalType":"address"},{"name":"amountIn","type":"uint256","indexed":false,"internalType":"uint256"},{"name":"amountOut","type":"uint256","indexed":false,"internalType":"uint256"}],"anonymous":false},{"type":"error","name":"NotPoolManager","inputs":[]},{"type":"error","name":"SafeERC20FailedOperation","inputs":[{"name":"token","type":"address","internalType":"address"}]}],"bytecode":{"object":"0x60a03460d557601f61234938819003918201601f19168301916001600160401b0383118484101760d957808492604094855283398101031260d5578051906001600160a01b038216820360d557602001516001600160a01b038116919082900360d5576080525f80546001600160a01b03191691909117905560405161225b90816100ee823960805181818160d4015281816101bc0152818161035e0152818161080801528181610a3501528181610a8f01528181610b1701528181610bce01528181610d2301528181610d790152610f510152f35b5f80fd5b634e487b7160e01b5f52604160045260245ffdfe60806040526004361015610011575f80fd5b5f803560e01c80630ba1d6e51461137d57806316345f18146113525780631ad8de2f1461131a57806331ad2b7e146112ca5780633fc8cef3146112a35780635b6cca80146112635780636098fd4a1461120957806369649c1914610ec357806376e1128614610e7557806385e0341e146109a857806391dd7346146107b05780639dcb511a1461076f578063af9d049414610304578063cd0d0332146101065763dc4c90d3146100bf575f80fd5b346101035780600319360112610103576040517f00000000000000000000000000000000000000000000000000000000000000006001600160a01b03168152602090f35b80fd5b50346101035760a0366003190112610103576101213661145d565b80516001600160a01b0390811683526001602052604083205416156102bf57602081810180516001600160a01b039081168552600190925260408420549091161561027a5761016f8261150e565b91610179816121f2565b15610182578380f35b60405163313b65df60e11b81529261019d60048501836118f8565b60018060a01b0316928360a482015260208160c4818860018060a01b037f0000000000000000000000000000000000000000000000000000000000000000165af1801561026f5761022f575b505190516040519283526001600160a01b03908116929116907fe60552f09d8264482f038156bcd43151fb32b5419918a9c1512ff150fac91b3690602090a35f80808380f35b6020813d602011610267575b81610248602093836113eb565b8101031261026357518060020b8103610263575060206101e9565b8480fd5b3d915061023b565b6040513d87823e3d90fd5b60405162461bcd60e51b815260206004820152601d60248201527f5072696365206665656420666f7220746f6b656e31206e6f74207365740000006044820152606490fd5b60405162461bcd60e51b815260206004820152601d60248201527f5072696365206665656420666f7220746f6b656e30206e6f74207365740000006044820152606490fd5b503461010357610120366003190112610103576103203661145d565b60a4359060c435908160020b8092036106695761033b61144d565b83156107365761034a826121f2565b156106fa576103b992859160018060a01b037f000000000000000000000000000000000000000000000000000000000000000016918360405161039060208201886118f8565b60a0815261039f60c0826113eb565b604051809881926348c8949160e01b8352600483016114e4565b038183875af19182156106915761041a966040936106da575b506103dc8861193b565b908351926103e9846113b3565b835260020b602083015282820152610104356060820152815180968192632d35e7ed60e11b835287600484016119e0565b038185855af193841561066d5782946106a8575b5061044a61043e8560801d611a2e565b600f0b94600f0b611a2e565b83516001600160a01b03908116845260026020908152604080862082880180519094165f90815292529020549095600f9290920b919081116106a25784516001600160a01b03908116855260026020908152604080872089519093165f908152929091529020546104bc908290611a4e565b85516001600160a01b0390811686526002602081815260408089208b5185165f908152908352818120959095558a51841689529181528188208951909316845291909152902054821161069c5785516001600160a01b03908116855260026020908152604080872088519093165f9081529290915290205461053f908390611a4e565b86516001600160a01b039081168652600260209081526040808820895184165f9081529252902091909155855116833b1561026357604051630b0d9c0960e01b81526001600160a01b039190911660048201523360248201526044810191909152838160648183875af1908115610691578491610678575b505084516001600160a01b031690823b1561066957604051630b0d9c0960e01b81526001600160a01b0392909216600483015233602483015260448201529082908290606490829084905af1801561066d57610654575b505051905160405192835233926001600160a01b0391821692909116907f94f1f3125c0ce3e87e73be7798f37f42710fa4c304b51ee82698965e200afa7390602090a480f35b8161065e916113eb565b61066957835f61060e565b8380fd5b6040513d84823e3d90fd5b81610682916113eb565b61068d57825f6105b7565b8280fd5b6040513d86823e3d90fd5b8361053f565b836104bc565b6106cb91945060403d6040116106d3575b6106c381836113eb565b8101906119ca565b50925f61042e565b503d6106b9565b6106f5903d8088833e6106ed81836113eb565b810190611967565b6103d2565b60405162461bcd60e51b8152602060048201526014602482015273141bdbdb081b9bdd081a5b9a5d1a585b1a5e995960621b6044820152606490fd5b60405162461bcd60e51b8152602060048201526011602482015270496e76616c6964206c697175696469747960781b6044820152606490fd5b5034610103576020366003190112610103576020906001600160a01b0361079461140d565b16815260018252604060018060a01b0391205416604051908152f35b50346101035760203660031901126101035760043567ffffffffffffffff811161095057366023820112156109505780600401359167ffffffffffffffff831161010357602482019183810136602482011161068d577f00000000000000000000000000000000000000000000000000000000000000006001600160a01b031633036109995784156109545760c08282031261068d5760248460a0920301126109505760405190610860826113cf565b61086984611439565b825261087760448201611439565b6020830152606481013562ffffff8116810361066957604083015260848101358060020b810361094c57606083015260a48101356001600160a01b03811681036106695760808301526108cc9060c401611439565b50516001600160a01b03161561091557602083806108ec6109119661194b565b946108fa60405196876113eb565b8186528386013783010152604051918291826114e4565b0390f35b60405162461bcd60e51b815260206004820152600f60248201526e496e76616c696420706f6f6c4b657960881b6044820152606490fd5b5f80fd5b5080fd5b60405162461bcd60e51b815260206004820152601b60248201527f496e76616c696420756e6c6f636b43616c6c6261636b206461746100000000006044820152606490fd5b63570c108560e11b8352600483fd5b503461010357610140366003190112610103576109c43661145d565b6109cc61144d565b61010435918260020b8084036102635760a435151580610e6a575b15610e3357815160208301516001600160a01b0391821695911693610a1060a435303389611ceb565b610a1e60c435303388611ceb565b60405163095ea7b360e01b81526001600160a01b037f000000000000000000000000000000000000000000000000000000000000000016600482015260a43560248201526020816044818b8b5af18015610dde57610e16575b5060405163095ea7b360e01b81526001600160a01b037f000000000000000000000000000000000000000000000000000000000000000016600482015260c4356024820152926020846044818b8a5af1938415610dde57610b1294610de9575b5087604051610ae960208201886118f8565b60a08152610af860c0826113eb565b604051809681926348c8949160e01b8352600483016114e4565b0381837f00000000000000000000000000000000000000000000000000000000000000006001600160a01b03165af1938415610dde57610b8a6040946001600160801b0392610bc997610dc6575b50610b6a85611d82565b9060c43591610b7b60a43592611d82565b90610b858b61150e565b611829565b1690835192610b98846113b3565b60020b8352602083015282820152610124356060820152815180938192632d35e7ed60e11b835286600484016119e0565b0381887f00000000000000000000000000000000000000000000000000000000000000006001600160a01b03165af190811561026f578591610da6575b508060801d8581600f0b129182610d5a575b600f0b918683129384610d07575b5015610cfd57610c38610c4491611a2e565b600f0b5b60a435611a4e565b9115610cf357610c56610c6291611a2e565b600f0b5b60c435611a4e565b9083855260026020526040852060018060a01b0384165f52602052610c8c60405f20918254611a5b565b905581845260026020526040842060018060a01b0384165f52602052610cb760405f20918254611a5b565b90556040519160a435835260c43560208401527fb5bf3f2c68363aa6e695c29010485bcfecb5439239c6b1306fdec5b26cb7c62e60403394a480f35b50610c6284610c5a565b50610c4485610c3c565b610d5490610d1485611a2e565b602090910151600f9190910b907f00000000000000000000000000000000000000000000000000000000000000006001600160a01b0390811691166120af565b5f610c26565b610da1610d6683611a2e565b8551600f9190910b906001600160a01b037f0000000000000000000000000000000000000000000000000000000000000000811691166120af565b610c18565b610dbf915060403d6040116106d3576106c381836113eb565b505f610c06565b610dd9903d808e833e6106ed81836113eb565b610b60565b6040513d8a823e3d90fd5b610e0a9060203d602011610e0f575b610e0281836113eb565b8101906118e0565b610ad7565b503d610df8565b610e2e9060203d602011610e0f57610e0281836113eb565b610a77565b60405162461bcd60e51b815260206004820152600f60248201526e496e76616c696420616d6f756e747360881b6044820152606490fd5b5060c43515156109e7565b503461010357604036600319011261010357610e8f61140d565b610e97611423565b6001600160a01b03918216835260016020526040832080546001600160a01b0319169190921617905580f35b503461094c5761010036600319011261094c57610edf3661145d565b60a4359060c43542116111da5781156111a45780516020820180516001600160a01b039081169392169183831091821561119d5783915b8315611182576401000276a4925b6001600160a01b031692610f3a88303387611ceb565b60405163095ea7b360e01b81526001600160a01b037f00000000000000000000000000000000000000000000000000000000000000001660048201819052602482018a905294602090829060449082905f905af180156110ed57611165575b50604051906060820182811067ffffffffffffffff8211176111515760405285825260208201898152604083019160018060a01b0316825260405192633cf3645360e21b8452610fec60048501866118f8565b51151560a48401525160c483015260018060a01b0390511660e48201526101206101048201525f610124820152602081610144815f885af19081156110ed575f9161111f575b50841561110a5761104590600f0b61193b565b935b156110f85750516001600160a01b0316905b803b1561094c57604051630b0d9c0960e01b81526001600160a01b03929092166004830152336024830152604482018390525f908290606490829084905af180156110ed576110d8575b5060405193845260208401527f764f0dc063c06f32d89a3f3af80c0db4be8a090901f589a478b447e0a51f09f160403394a480f35b6110e59195505f906113eb565b5f935f6110a3565b6040513d5f823e3d90fd5b516001600160a01b0316919050611059565b6111199060801d600f0b61193b565b93611047565b90506020813d602011611149575b8161113a602093836113eb565b8101031261094c57515f611032565b3d915061112d565b634e487b7160e01b5f52604160045260245ffd5b61117d9060203d602011610e0f57610e0281836113eb565b610f99565b73fffd8963efd1fc6a506488495d951d5263988d2592610f24565b8491610f16565b60405162461bcd60e51b815260206004820152600e60248201526d125b9d985b1a5908185b5bdd5b9d60921b6044820152606490fd5b60405162461bcd60e51b8152602060048201526007602482015266115e1c1a5c995960ca1b6044820152606490fd5b3461094c5760a036600319011261094c5761122261140d565b61122a611423565b604435906001600160a01b038216820361094c57602092611252926084359260643592611829565b6001600160801b0360405191168152f35b3461094c57602036600319011261094c576001600160a01b0361128461140d565b165f526001602052602060018060a01b0360405f205416604051908152f35b3461094c575f36600319011261094c575f546040516001600160a01b039091168152602090f35b3461094c57604036600319011261094c576112e361140d565b6112eb611423565b6001600160a01b039182165f908152600260209081526040808320949093168252928352819020549051908152f35b3461094c57604036600319011261094c57604061134661133861140d565b611340611423565b906117ed565b82519182526020820152f35b3461094c57602036600319011261094c57602061137561137061140d565b61164d565b604051908152f35b3461094c5760a036600319011261094c5760206113a161139c3661145d565b61150e565b6040516001600160a01b039091168152f35b6080810190811067ffffffffffffffff82111761115157604052565b60a0810190811067ffffffffffffffff82111761115157604052565b90601f8019910116810190811067ffffffffffffffff82111761115157604052565b600435906001600160a01b038216820361094c57565b602435906001600160a01b038216820361094c57565b35906001600160a01b038216820361094c57565b60e435908160020b820361094c57565b60a090600319011261094c5760405190611476826113cf565b816004356001600160a01b038116810361094c5781526024356001600160a01b038116810361094c57602082015260443562ffffff8116810361094c5760408201526064358060020b810361094c576060820152608435906001600160a01b038216820361094c5760800152565b602060409281835280519182918282860152018484015e5f828201840152601f01601f1916010190565b805161153a90611526906001600160a01b031661164d565b6020909201516001600160a01b031661164d565b908015158061162d575b156115f75761155291611a68565b5f60038211156115e95750808060011c600181018091116115a257905b8282106115b65750505b8060601b90808204600160601b14901517156115a257633b9aca0090046001600160a01b031690565b634e487b7160e01b5f52601160045260245ffd5b9091508180156115d557806115cc918304611a5b565b60011c9061156f565b634e487b7160e01b5f52601260045260245ffd5b901561157957506001611579565b60405162461bcd60e51b815260206004820152600e60248201526d496e76616c69642070726963657360901b6044820152606490fd5b50811515611544565b519069ffffffffffffffffffff8216820361094c57565b6001600160a01b039081165f908152600160205260409020541680156117b357604051633fabe5a360e21b81529060a082600481845afa9182156110ed575f92611764575b505f82131561172f5760206004916040519283809263313ce56760e01b82525afa80156110ed575f906116f2575b60ff91501660120360ff81116115a25760ff16604d81116115a257600a0a908181029181830414901517156115a25790565b506020813d602011611727575b8161170c602093836113eb565b8101031261094c575160ff8116810361094c5760ff906116c0565b3d91506116ff565b60405162461bcd60e51b815260206004820152600d60248201526c496e76616c696420707269636560981b6044820152606490fd5b90915060a0813d60a0116117ab575b8161178060a093836113eb565b8101031261094c5761179181611636565b506117a3608060208301519201611636565b50905f611692565b3d9150611773565b60405162461bcd60e51b8152602060048201526012602482015271141c9a58d94819995959081b9bdd081cd95d60721b6044820152606490fd5b6001600160a01b039081165f81815260026020818152604080842096909516835294855283822054908552838220928252919093529120549091565b936001600160a01b03838116908316116118bf575b6001600160a01b0385811695908316861161186257505061185f9350611c92565b90565b919490939192906001600160a01b03821611156118b35782916118899161188f9594611c92565b93611c4b565b6001600160801b0381166001600160801b038316105f146118ae575090565b905090565b91505061185f92611c4b565b90919061183e565b6001600160a01b0391821690821603919082116115a257565b9081602091031261094c5751801515810361094c5790565b80516001600160a01b03908116835260208083015182169084015260408083015162ffffff169084015260608083015160020b9084015260809182015116910152565b600160ff1b81146115a2575f0390565b67ffffffffffffffff811161115157601f01601f191660200190565b60208183031261094c5780519067ffffffffffffffff821161094c570181601f8201121561094c5780519061199b8261194b565b926119a960405194856113eb565b8284526020838301011161094c57815f9260208093018386015e8301015290565b919082604091031261094c576020825192015190565b90610160926119f1836060936118f8565b805160020b60a0840152602081015160020b60c0840152604081015160e084015201516101008201526101406101208201525f6101408201520190565b600f0b6f7fffffffffffffffffffffffffffffff1981146115a2575f0390565b919082039182116115a257565b919082018092116115a257565b90670de0b6b3a76400008202905f19670de0b6b3a764000084099282808510940393808503948584111561094c5714611af857670de0b6b3a764000082910981805f03168092046002816003021880820260020302808202600203028082026002030280820260020302808202600203028091026002030293600183805f03040190848311900302920304170290565b5091500490565b90606082901b905f19600160601b84099282808510940393808503948584111561094c5714611af8578190600160601b900981805f03168092046002816003021880820260020302808202600203028082026002030280820260020302808202600203028091026002030293600183805f03040190848311900302920304170290565b81810291905f1982820991838084109303928084039384600160601b111561094c5714611bc257600160601b910990828211900360a01b910360601c1790565b50505060601c90565b91818302915f198185099383808610950394808603958685111561094c5714611c43579082910981805f03168092046002816003021880820260020302808202600203028082026002030280820260020302808202600203028091026002030293600183805f03040190848311900302920304170290565b505091500490565b6001600160801b0392611c889290916001600160a01b0380831690821611611c8c575b6001600160a01b0391611c8191906118c7565b1690611aff565b1690565b90611c6e565b6001600160801b0392611c88929091906001600160a01b0380821690831611611ce5575b611cde611ccf6001600160a01b03838116908516611b82565b926001600160a01b03926118c7565b1691611bcb565b90611cb6565b6040516323b872dd60e01b60208083019182526001600160a01b039485166024840152949093166044820152606480820195909552938452925f9190611d326084826113eb565b519082855af1156110ed575f513d611d7957506001600160a01b0381163b155b611d595750565b635274afe760e01b5f9081526001600160a01b0391909116600452602490fd5b60011415611d52565b60020b908160ff1d82810118620d89e8811161209c5763ffffffff9192600182167001fffcb933bd6fad37aa2d162d1a59400102600160801b189160028116612080575b60048116612064575b60088116612048575b6010811661202c575b60208116612010575b60408116611ff4575b60808116611fd8575b6101008116611fbc575b6102008116611fa0575b6104008116611f84575b6108008116611f68575b6110008116611f4c575b6120008116611f30575b6140008116611f14575b6180008116611ef8575b620100008116611edc575b620200008116611ec1575b620400008116611ea6575b6208000016611e8d575b5f12611e85575b0160201c90565b5f1904611e7e565b6b048a170391f7dc42444e8fa290910260801c90611e77565b6d2216e584f5fa1ea926041bedfe9890920260801c91611e6d565b916e5d6af8dedb81196699c329225ee6040260801c91611e62565b916f09aa508b5b7a84e1c677de54f3e99bc90260801c91611e57565b916f31be135f97d08fd981231505542fcfa60260801c91611e4c565b916f70d869a156d2a1b890bb3df62baf32f70260801c91611e42565b916fa9f746462d870fdf8a65dc1f90e061e50260801c91611e38565b916fd097f3bdfd2022b8845ad8f792aa58250260801c91611e2e565b916fe7159475a2c29b7443b29c7fa6e889d90260801c91611e24565b916ff3392b0822b70005940c7a398e4b70f30260801c91611e1a565b916ff987a7253ac413176f2b074cf7815e540260801c91611e10565b916ffcbe86c7900a88aedcffc83b479aa3a40260801c91611e06565b916ffe5dee046a99a2a811c461f1969c30530260801c91611dfc565b916fff2ea16466c96a3843ec78b326b528610260801c91611df3565b916fff973b41fa98c081472e6896dfb254c00260801c91611dea565b916fffcb9843d60f6159c9db58835c9266440260801c91611de1565b916fffe5caca7e10e4e61c3624eaa0941cd00260801c91611dd8565b916ffff2e50f5f656932ef12357cf3c7fdcc0260801c91611dcf565b916ffff97272373d413259a46990580e213a0260801c91611dc6565b826345c3193d60e11b5f5260045260245ffd5b9091906001600160a01b038116908161213d5750505f80808093855af1156120d45750565b6040516390bfb86560e01b81526001600160a01b0390911660048201525f602482018190526080604483015260a03d601f01601f191690810160648401523d6084840152903d9060a484013e808201600460a482015260c4633d2cec6f60e21b91015260e40190fd5b60205f604481949682604095865198899363a9059cbb60e01b855260018060a01b0316600485015260248401525af13d15601f3d1160018551141617169282815282602082015201521561218e5750565b6040516390bfb86560e01b8152600481019190915263a9059cbb60e01b602482015260806044820152601f3d01601f191660a0810160648301523d60848301523d5f60a484013e808201600460a482015260c4633c9fd93960e21b91015260e40190fd5b8051602090910151612210916001600160a01b0391821691166117ed565b90159081159161221e575090565b905015159056fea264697066735822122052e8f1a3a3ec763d8dce60c993436a6d7e2206fe9995915b29475e0b7bfc102164736f6c634300081a0033","linkReferences":{}},"methodIdentifiers":{"addLiquidity((address,address,uint24,int24,address),uint256,uint256,int24,int24,bytes32)":"85e0341e","computeSqrtPriceX96((address,address,uint24,int24,address))":"0ba1d6e5","getLatestPrice(address)":"16345f18","getLiquidityForAmounts(uint160,uint160,uint160,uint256,uint256)":"6098fd4a","getPriceFeed(address)":"5b6cca80","getTotalLiquidity(address,address)":"1ad8de2f","initializePoolWithChainlink((address,address,uint24,int24,address))":"cd0d0332","poolManager()":"dc4c90d3","priceFeeds(address)":"9dcb511a","removeLiquidity((address,address,uint24,int24,address),uint256,int24,int24,bytes32)":"af9d0494","setPriceFeed(address,address)":"76e11286","swapExactInputSingle((address,address,uint24,int24,address),uint256,uint256,uint256)":"69649c19","totalLiquidity(address,address)":"31ad2b7e","unlockCallback(bytes)":"91dd7346","weth()":"3fc8cef3"},"id":0}