{"abi":[{"type":"constructor","inputs":[{"name":"_poolManager","type":"address","internalType":"contract IPoolManager"},{"name":"_weth","type":"address","internalType":"address"}],"stateMutability":"nonpayable"},{"type":"function","name":"addLiquidity","inputs":[{"name":"poolKey","type":"tuple","internalType":"struct PoolKey","components":[{"name":"currency0","type":"address","internalType":"Currency"},{"name":"currency1","type":"address","internalType":"Currency"},{"name":"fee","type":"uint24","internalType":"uint24"},{"name":"tickSpacing","type":"int24","internalType":"int24"},{"name":"hooks","type":"address","internalType":"contract IHooks"}]},{"name":"amount0","type":"uint256","internalType":"uint256"},{"name":"amount1","type":"uint256","internalType":"uint256"},{"name":"tickLower","type":"int24","internalType":"int24"},{"name":"tickUpper","type":"int24","internalType":"int24"},{"name":"salt","type":"bytes32","internalType":"bytes32"}],"outputs":[],"stateMutability":"nonpayable"},{"type":"function","name":"computeSqrtPriceX96","inputs":[{"name":"poolKey","type":"tuple","internalType":"struct PoolKey","components":[{"name":"currency0","type":"address","internalType":"Currency"},{"name":"currency1","type":"address","internalType":"Currency"},{"name":"fee","type":"uint24","internalType":"uint24"},{"name":"tickSpacing","type":"int24","internalType":"int24"},{"name":"hooks","type":"address","internalType":"contract IHooks"}]}],"outputs":[{"name":"sqrtPriceX96","type":"uint160","internalType":"uint160"}],"stateMutability":"view"},{"type":"function","name":"getLatestPrice","inputs":[{"name":"token","type":"address","internalType":"address"}],"outputs":[{"name":"","type":"uint256","internalType":"uint256"}],"stateMutability":"view"},{"type":"function","name":"getTotalLiquidity","inputs":[{"name":"token0","type":"address","internalType":"address"},{"name":"token1","type":"address","internalType":"address"}],"outputs":[{"name":"","type":"uint256","internalType":"uint256"},{"name":"","type":"uint256","internalType":"uint256"}],"stateMutability":"view"},{"type":"function","name":"initializePoolWithChainlink","inputs":[{"name":"poolKey","type":"tuple","internalType":"struct PoolKey","components":[{"name":"currency0","type":"address","internalType":"Currency"},{"name":"currency1","type":"address","internalType":"Currency"},{"name":"fee","type":"uint24","internalType":"uint24"},{"name":"tickSpacing","type":"int24","internalType":"int24"},{"name":"hooks","type":"address","internalType":"contract IHooks"}]}],"outputs":[],"stateMutability":"nonpayable"},{"type":"function","name":"poolManager","inputs":[],"outputs":[{"name":"","type":"address","internalType":"contract IPoolManager"}],"stateMutability":"view"},{"type":"function","name":"priceFeeds","inputs":[{"name":"","type":"address","internalType":"address"}],"outputs":[{"name":"","type":"address","internalType":"address"}],"stateMutability":"view"},{"type":"function","name":"removeLiquidity","inputs":[{"name":"poolKey","type":"tuple","internalType":"struct PoolKey","components":[{"name":"currency0","type":"address","internalType":"Currency"},{"name":"currency1","type":"address","internalType":"Currency"},{"name":"fee","type":"uint24","internalType":"uint24"},{"name":"tickSpacing","type":"int24","internalType":"int24"},{"name":"hooks","type":"address","internalType":"contract IHooks"}]},{"name":"liquidity","type":"uint256","internalType":"uint256"},{"name":"tickLower","type":"int24","internalType":"int24"},{"name":"tickUpper","type":"int24","internalType":"int24"},{"name":"salt","type":"bytes32","internalType":"bytes32"}],"outputs":[],"stateMutability":"nonpayable"},{"type":"function","name":"setPriceFeed","inputs":[{"name":"token","type":"address","internalType":"address"},{"name":"feed","type":"address","internalType":"address"}],"outputs":[],"stateMutability":"nonpayable"},{"type":"function","name":"swapExactInputSingle","inputs":[{"name":"poolKey","type":"tuple","internalType":"struct PoolKey","components":[{"name":"currency0","type":"address","internalType":"Currency"},{"name":"currency1","type":"address","internalType":"Currency"},{"name":"fee","type":"uint24","internalType":"uint24"},{"name":"tickSpacing","type":"int24","internalType":"int24"},{"name":"hooks","type":"address","internalType":"contract IHooks"}]},{"name":"amountIn","type":"uint256","internalType":"uint256"},{"name":"deadline","type":"uint256","internalType":"uint256"},{"name":"maxSlippage","type":"uint256","internalType":"uint256"}],"outputs":[],"stateMutability":"nonpayable"},{"type":"function","name":"totalLiquidity","inputs":[{"name":"","type":"address","internalType":"address"},{"name":"","type":"address","internalType":"address"}],"outputs":[{"name":"","type":"uint256","internalType":"uint256"}],"stateMutability":"view"},{"type":"function","name":"unlockCallback","inputs":[{"name":"data","type":"bytes","internalType":"bytes"}],"outputs":[{"name":"","type":"bytes","internalType":"bytes"}],"stateMutability":"nonpayable"},{"type":"function","name":"weth","inputs":[],"outputs":[{"name":"","type":"address","internalType":"address"}],"stateMutability":"view"},{"type":"event","name":"LiquidityAdded","inputs":[{"name":"token0","type":"address","indexed":true,"internalType":"address"},{"name":"token1","type":"address","indexed":true,"internalType":"address"},{"name":"sender","type":"address","indexed":true,"internalType":"address"},{"name":"amount0","type":"uint256","indexed":false,"internalType":"uint256"},{"name":"amount1","type":"uint256","indexed":false,"internalType":"uint256"}],"anonymous":false},{"type":"event","name":"LiquidityRemoved","inputs":[{"name":"token0","type":"address","indexed":true,"internalType":"address"},{"name":"token1","type":"address","indexed":true,"internalType":"address"},{"name":"sender","type":"address","indexed":true,"internalType":"address"},{"name":"liquidity","type":"uint256","indexed":false,"internalType":"uint256"}],"anonymous":false},{"type":"event","name":"PoolInitialized","inputs":[{"name":"token0","type":"address","indexed":true,"internalType":"address"},{"name":"token1","type":"address","indexed":true,"internalType":"address"},{"name":"sqrtPriceX96","type":"uint160","indexed":false,"internalType":"uint160"}],"anonymous":false},{"type":"event","name":"SwapExecuted","inputs":[{"name":"token0","type":"address","indexed":true,"internalType":"address"},{"name":"token1","type":"address","indexed":true,"internalType":"address"},{"name":"sender","type":"address","indexed":true,"internalType":"address"},{"name":"amountIn","type":"uint256","indexed":false,"internalType":"uint256"},{"name":"amountOut","type":"uint256","indexed":false,"internalType":"uint256"}],"anonymous":false},{"type":"error","name":"NotPoolManager","inputs":[]},{"type":"error","name":"SafeERC20FailedOperation","inputs":[{"name":"token","type":"address","internalType":"address"}]}],"bytecode":{"object":"0x60a03460b257601f611f6738819003918201601f19168301916001600160401b0383118484101760b657808492604094855283398101031260b2578051906001600160a01b038216820360b257602001516001600160a01b038116919082900360b2576080525f80546001600160a01b031916919091179055604051611e9c90816100cb823960805181818160bd015281816101a201528181610405015281816106dc015281816109a60152610e1e0152f35b5f80fd5b634e487b7160e01b5f52604160045260245ffdfe60806040526004361015610011575f80fd5b5f3560e01c80630ba1d6e51461126f57806316345f18146112445780631ad8de2f146111e057806331ad2b7e146111905780633fc8cef31461116957806369649c1914610d1357806376e1128614610cc557806385e0341e146108e257806391dd73461461068a5780639dcb511a1461064a578063af9d049414610372578063cd0d0332146100f05763dc4c90d3146100a8575f80fd5b346100ec575f3660031901126100ec576040517f00000000000000000000000000000000000000000000000000000000000000006001600160a01b03168152602090f35b5f80fd5b346100ec5760a03660031901126100ec5761010a3661134f565b80516001600160a01b039081165f90815260016020526040902054161561032d576020810160018060a01b038151165f52600160205260018060a01b0360405f205416156102e85761015b82611400565b9161019d5f604051610183816101758887602084016119a4565b03601f1981018352826112dd565b604051809381926348c8949160e01b8352600483016113d6565b0381837f00000000000000000000000000000000000000000000000000000000000000006001600160a01b03165af180156102dd5761021b575b505190516040516001600160a01b03938416815290831692909116907fe60552f09d8264482f038156bcd43151fb32b5419918a9c1512ff150fac91b3690602090a3005b903d805f843e61022b81846112dd565b8201916020818403126100ec5780519067ffffffffffffffff82116100ec57019082601f830112156100ec5781519267ffffffffffffffff84116102c95760405190610281601f8601601f1916602001836112dd565b848252602085850101116100ec575f6020857fe60552f09d8264482f038156bcd43151fb32b5419918a9c1512ff150fac91b3696828097018386015e830101525091506101d7565b634e487b7160e01b5f52604160045260245ffd5b6040513d5f823e3d90fd5b60405162461bcd60e51b815260206004820152601d60248201527f5072696365206665656420666f7220746f6b656e31206e6f74207365740000006044820152606490fd5b60405162461bcd60e51b815260206004820152601d60248201527f5072696365206665656420666f7220746f6b656e30206e6f74207365740000006044820152606490fd5b346100ec576101203660031901126100ec5761038d3661134f565b60a4359060c435908160020b8092036100ec576103a861133f565b831561060557600160ff1b84146105f157610400926040918251916103cc836112a5565b825260020b6020820152845f0382820152610104356060820152815180948192632d35e7ed60e11b83528560048401611956565b03815f7f00000000000000000000000000000000000000000000000000000000000000006001600160a01b03165af19182156102dd575f926105bf575b508051602080830180516001600160a01b039384165f8181526002855260408082209690931680825295909452922054909461053193909261051f92608085901d600f0b9290831161059857815f52600260205260405f2060018060a01b0382165f5260205260405f206104b2848254611933565b90555b805f52600260205260405f2060018060a01b0383165f5260205260405f205494600f0b809510155f14610574575f52600260205260405f209060018060a01b03165f5260205260405f2061050a848254611933565b90555b845133906001600160a01b0316611dd3565b835133906001600160a01b0316611dd3565b51905160405192835233926001600160a01b0391821692909116907f94f1f3125c0ce3e87e73be7798f37f42710fa4c304b51ee82698965e200afa7390602090a4005b5f52600260205260405f209060018060a01b03165f526020525f604081205561050d565b5f8281526002602090815260408083206001600160a01b03851684529091528120556104b5565b6105e291925060403d6040116105ea575b6105da81836112dd565b810190611940565b50908361043d565b503d6105d0565b634e487b7160e01b5f52601160045260245ffd5b60405162461bcd60e51b815260206004820152601860248201527f496e76616c6964206c697175696469747920616d6f756e7400000000000000006044820152606490fd5b346100ec5760203660031901126100ec576001600160a01b0361066b6112ff565b165f526001602052602060018060a01b0360405f205416604051908152f35b346100ec5760203660031901126100ec5760043567ffffffffffffffff81116100ec57366023820112156100ec5780600401359067ffffffffffffffff82116100ec578181013660248201116100ec577f00000000000000000000000000000000000000000000000000000000000000006001600160a01b031692338490036108d357604051610719816112c1565b5f81525f60208201525f60408201525f60608201525f60808201526107456040519160208301906118f0565b5f60c082015260c0815261075a60e0826112dd565b510361088e5760c0828203126100ec5760a090829003126100ec5760405190610782826112c1565b61078e6024820161132b565b825261079c6044820161132b565b6020830152606481013562ffffff811681036100ec57604083015260848101358060020b81036100ec57606083015260a4810135906001600160a01b03821682036100ec57608083019190915260c401356001600160a01b03811681036100ec57610821926020925f60405180968195829463313b65df60e11b8452600484016119a4565b03925af180156102dd57610855575b506108516040516108426020826112dd565b5f8152604051918291826113d6565b0390f35b6020813d602011610886575b8161086e602093836112dd565b810103126100ec57518060020b036100ec5780610830565b3d9150610861565b60405162461bcd60e51b815260206004820152601b60248201527f496e76616c696420756e6c6f636b43616c6c6261636b206461746100000000006044820152606490fd5b63570c108560e11b5f5260045ffd5b346100ec576101403660031901126100ec576108fd3661134f565b60c43560a43561090b61133f565b9161010435938460020b8095036100ec5782151580610cbc575b15610c855780516020808301516040516370a0823160e01b8152306004820152976001600160a01b03918216979390911695929188602481895afa9788156102dd575f98610c51575b506040516370a0823160e01b8152306004820152936020856024818b5afa9485156102dd575f95610c16575b50610a279260409290917f00000000000000000000000000000000000000000000000000000000000000006001600160a01b0316916109db8784338d611d88565b6109e78984338e611d88565b8451936109f3856112a5565b60020b8452602084015285848401526101243560608401525f8451809681958294632d35e7ed60e11b845260048401611956565b03925af180156102dd57610bf8575b50835f52600260205260405f2060018060a01b0386165f5260205260405f20610a608282546118e3565b9055845f52600260205260405f2060018060a01b0385165f5260205260405f20610a8b8482546118e3565b90556040516370a0823160e01b815230600482015295602087602481885afa9687156102dd575f97610bc4575b506040516370a0823160e01b8152306004820152966020886024818a5afa9788156102dd575f98610b82575b50610b0f92610b0f8383610b1b989795610b159511610b69575b858c818111610b4e575b5050611933565b90611933565b96611933565b60405193845260208401527fb5bf3f2c68363aa6e695c29010485bcfecb5439239c6b1306fdec5b26cb7c62e60403394a4005b610b6291610b5b91611933565b338d611dd3565b858c610b08565b610b7d610b768383611933565b338c611dd3565b610afe565b929493919097506020833d602011610bbc575b81610ba2602093836112dd565b810103126100ec5791519692939092909190610b0f610ae4565b3d9150610b95565b9096506020813d602011610bf0575b81610be0602093836112dd565b810103126100ec57519587610ab8565b3d9150610bd3565b610c109060403d6040116105ea576105da81836112dd565b50610a36565b91929094506020823d602011610c49575b81610c34602093836112dd565b810103126100ec57905193909190604061099a565b3d9150610c27565b9097506020813d602011610c7d575b81610c6d602093836112dd565b810103126100ec5751968861096e565b3d9150610c60565b60405162461bcd60e51b815260206004820152600f60248201526e496e76616c696420616d6f756e747360881b6044820152606490fd5b50811515610925565b346100ec5760403660031901126100ec57610cde6112ff565b610ce6611315565b6001600160a01b039182165f90815260016020526040902080546001600160a01b03191691909216179055005b346100ec576101003660031901126100ec57610d2e3661134f565b60a4359060c435421161112e5781156110f3576001600160a01b03610d5282611400565b1660e435606401806064116105f1576001600160a01b0391606491610d7691611739565b041660018060a01b038251169060018060a01b036020840151169283831094855f146110ec5783955b80156110e55785965b6040516370a0823160e01b8152306004820152976001600160a01b03919091169390602089602481885afa9889156102dd575f996110b1575b506040516370a0823160e01b8152306004820152956001600160a01b03919091169290602087602481875afa9687156102dd575f9761107d575b507f00000000000000000000000000000000000000000000000000000000000000006001600160a01b031691610e538684338a611d88565b604051936060850185811067ffffffffffffffff8211176102c957602094610ea994610144945f9360405288528688018a8152604089019182526040519889978896633cf3645360e21b885260048801906118f0565b51151560a48601525160c4850152516001600160a01b031660e484015261012061010484015261012483018290525af180156102dd5761104e575b506040516370a0823160e01b8152306004820152602081602481875afa9081156102dd575f9161101c575b506040516370a0823160e01b815230600482015294602086602481865afa9081156102dd575f91610fe6575b610f7c965080821115610fdd57610f5191611933565b975b80821115610fd457610f6491611933565b925b8380610fc2575b50508680610fb0575050611933565b9260405193845260208401527f764f0dc063c06f32d89a3f3af80c0db4be8a090901f589a478b447e0a51f09f160403394a4005b610fbb913390611dd3565b8686610b08565b610fcd913390611dd3565b8783610f6d565b50505f92610f66565b50505f97610f53565b90506020863d602011611014575b81611001602093836112dd565b810103126100ec57610f7c955190610f3b565b3d9150610ff4565b90506020813d602011611046575b81611037602093836112dd565b810103126100ec575188610f0f565b3d915061102a565b6020813d602011611075575b81611067602093836112dd565b810103126100ec5751610ee4565b3d915061105a565b9096506020813d6020116110a9575b81611099602093836112dd565b810103126100ec5751958a610e1b565b3d915061108c565b9098506020813d6020116110dd575b816110cd602093836112dd565b810103126100ec57519789610de1565b3d91506110c0565b8496610da8565b8495610d9f565b60405162461bcd60e51b8152602060048201526013602482015272125b9d985b1a59081cddd85c08185b5bdd5b9d606a1b6044820152606490fd5b60405162461bcd60e51b8152602060048201526013602482015272151c985b9cd858dd1a5bdb88195e1c1a5c9959606a1b6044820152606490fd5b346100ec575f3660031901126100ec575f546040516001600160a01b039091168152602090f35b346100ec5760403660031901126100ec576111a96112ff565b6111b1611315565b6001600160a01b039182165f908152600260209081526040808320949093168252928352819020549051908152f35b346100ec5760403660031901126100ec5760406111fb6112ff565b611203611315565b6001600160a01b039182165f818152600260208181528683209590941682529383528481205493835284812091815290825283902054835192835290820152f35b346100ec5760203660031901126100ec5760206112676112626112ff565b61174c565b604051908152f35b346100ec5760a03660031901126100ec57602061129361128e3661134f565b611400565b6040516001600160a01b039091168152f35b6080810190811067ffffffffffffffff8211176102c957604052565b60a0810190811067ffffffffffffffff8211176102c957604052565b90601f8019910116810190811067ffffffffffffffff8211176102c957604052565b600435906001600160a01b03821682036100ec57565b602435906001600160a01b03821682036100ec57565b35906001600160a01b03821682036100ec57565b60e435908160020b82036100ec57565b60a09060031901126100ec5760405190611368826112c1565b816004356001600160a01b03811681036100ec5781526024356001600160a01b03811681036100ec57602082015260443562ffffff811681036100ec5760408201526064358060020b81036100ec576060820152608435906001600160a01b03821682036100ec5760800152565b602060409281835280519182918282860152018484015e5f828201840152601f01601f1916010190565b805161143691906114319061141d906001600160a01b031661174c565b6020909201516001600160a01b031661174c565b6119c4565b6001600160a01b03818116919073fffd8963efd1fc6a506488495d951d51639616826401000276a21984019091161161170f5760201b640100000000600160c01b03168080156100ec5760ff826fffffffffffffffffffffffffffffffff1060071b83811c67ffffffffffffffff1060061b1783811c63ffffffff1060051b1783811c61ffff1060041b1783811c821060031b177f07060605060205000602030205040001060502050303040105050304000000006f8421084210842108cc6318c6db6d54be85831c1c601f161a17169160808310155f146117035750607e1982011c5b800280607f1c8160ff1c1c800280607f1c8160ff1c1c800280607f1c8160ff1c1c800280607f1c8160ff1c1c800280607f1c8160ff1c1c800280607f1c8160ff1c1c80029081607f1c8260ff1c1c80029283607f1c8460ff1c1c80029485607f1c8660ff1c1c80029687607f1c8860ff1c1c80029889607f1c8a60ff1c1c80029a8b607f1c8c60ff1c1c80029c8d80607f1c9060ff1c1c800260cd1c6604000000000000169d60cc1c6608000000000000169c60cb1c6610000000000000169b60ca1c6620000000000000169a60c91c6640000000000000169960c81c6680000000000000169860c71c670100000000000000169760c61c670200000000000000169660c51c670400000000000000169560c41c670800000000000000169460c31c671000000000000000169360c21c672000000000000000169260c11c674000000000000000169160c01c6780000000000000001690607f190160401b1717171717171717171717171717693627a301d71055774c85026f028f6481ab7f045a5af012a19d003aa919810160801d60020b906fdb2df09e81959a81455e260799a0632f0160801d60020b908181145f14926116dc936116df57509050611a5b565b90565b6001600160a01b036116f084611a5b565b16116116fc5750611a5b565b9050611a5b565b905081607f031b61151a565b506318521d4960e21b5f5260045260245ffd5b519069ffffffffffffffffffff821682036100ec57565b818102929181159184041417156105f157565b6001600160a01b039081165f908152600160205260409020541680156118a957604051633fabe5a360e21b81529060a082600481845afa9182156102dd575f9261185a575b505f8213156118255760206004916040519283809263313ce56760e01b82525afa80156102dd575f906117e8575b60ff91501660120360ff81116105f15760ff1690604d82116105f1576116dc91600a0a90611739565b506020813d60201161181d575b81611802602093836112dd565b810103126100ec575160ff811681036100ec5760ff906117bf565b3d91506117f5565b60405162461bcd60e51b815260206004820152600d60248201526c496e76616c696420707269636560981b6044820152606490fd5b90915060a0813d60a0116118a1575b8161187660a093836112dd565b810103126100ec5761188781611722565b50611899608060208301519201611722565b50905f611791565b3d9150611869565b60405162461bcd60e51b8152602060048201526012602482015271141c9a58d94819995959081b9bdd081cd95d60721b6044820152606490fd5b919082018092116105f157565b80516001600160a01b03908116835260208083015182169084015260408083015162ffffff169084015260608083015160020b9084015260809182015116910152565b919082039182116105f157565b91908260409103126100ec576020825192015190565b9061016092611967836060936118f0565b805160020b60a0840152602081015160020b60c0840152604081015160e084015201516101008201526101406101208201525f6101408201520190565b90929160a0906119b88360c08101966118f0565b600180831b0316910152565b90670de0b6b3a76400008202905f19670de0b6b3a76400008409928280851094039380850394858411156100ec5714611a5457670de0b6b3a764000082910981805f03168092046002816003021880820260020302808202600203028082026002030280820260020302808202600203028091026002030293600183805f03040190848311900302920304170290565b5091500490565b60020b908160ff1d82810118620d89e88111611d755763ffffffff9192600182167001fffcb933bd6fad37aa2d162d1a59400102600160801b189160028116611d59575b60048116611d3d575b60088116611d21575b60108116611d05575b60208116611ce9575b60408116611ccd575b60808116611cb1575b6101008116611c95575b6102008116611c79575b6104008116611c5d575b6108008116611c41575b6110008116611c25575b6120008116611c09575b6140008116611bed575b6180008116611bd1575b620100008116611bb5575b620200008116611b9a575b620400008116611b7f575b6208000016611b66575b5f12611b5e575b0160201c90565b5f1904611b57565b6b048a170391f7dc42444e8fa290910260801c90611b50565b6d2216e584f5fa1ea926041bedfe9890920260801c91611b46565b916e5d6af8dedb81196699c329225ee6040260801c91611b3b565b916f09aa508b5b7a84e1c677de54f3e99bc90260801c91611b30565b916f31be135f97d08fd981231505542fcfa60260801c91611b25565b916f70d869a156d2a1b890bb3df62baf32f70260801c91611b1b565b916fa9f746462d870fdf8a65dc1f90e061e50260801c91611b11565b916fd097f3bdfd2022b8845ad8f792aa58250260801c91611b07565b916fe7159475a2c29b7443b29c7fa6e889d90260801c91611afd565b916ff3392b0822b70005940c7a398e4b70f30260801c91611af3565b916ff987a7253ac413176f2b074cf7815e540260801c91611ae9565b916ffcbe86c7900a88aedcffc83b479aa3a40260801c91611adf565b916ffe5dee046a99a2a811c461f1969c30530260801c91611ad5565b916fff2ea16466c96a3843ec78b326b528610260801c91611acc565b916fff973b41fa98c081472e6896dfb254c00260801c91611ac3565b916fffcb9843d60f6159c9db58835c9266440260801c91611aba565b916fffe5caca7e10e4e61c3624eaa0941cd00260801c91611ab1565b916ffff2e50f5f656932ef12357cf3c7fdcc0260801c91611aa8565b916ffff97272373d413259a46990580e213a0260801c91611a9f565b826345c3193d60e11b5f5260045260245ffd5b6040516323b872dd60e01b60208201526001600160a01b039283166024820152929091166044830152606480830193909352918152611dd191611dcc6084836112dd565b611e0e565b565b60405163a9059cbb60e01b60208201526001600160a01b039092166024830152604480830193909352918152611dd191611dcc6064836112dd565b905f602091828151910182855af1156102dd575f513d611e5d57506001600160a01b0381163b155b611e3d5750565b635274afe760e01b5f9081526001600160a01b0391909116600452602490fd5b60011415611e3656fea2646970667358221220a70b1d9b0976669847702db7513e8486e8140815baf7e8d99adb58f5271fab5a64736f6c634300081a0033","linkReferences":{}},"methodIdentifiers":{"addLiquidity((address,address,uint24,int24,address),uint256,uint256,int24,int24,bytes32)":"85e0341e","computeSqrtPriceX96((address,address,uint24,int24,address))":"0ba1d6e5","getLatestPrice(address)":"16345f18","getTotalLiquidity(address,address)":"1ad8de2f","initializePoolWithChainlink((address,address,uint24,int24,address))":"cd0d0332","poolManager()":"dc4c90d3","priceFeeds(address)":"9dcb511a","removeLiquidity((address,address,uint24,int24,address),uint256,int24,int24,bytes32)":"af9d0494","setPriceFeed(address,address)":"76e11286","swapExactInputSingle((address,address,uint24,int24,address),uint256,uint256,uint256)":"69649c19","totalLiquidity(address,address)":"31ad2b7e","unlockCallback(bytes)":"91dd7346","weth()":"3fc8cef3"},"id":0}