{"abi":[{"type":"constructor","inputs":[{"name":"_poolManager","type":"address","internalType":"contract IPoolManager"},{"name":"_weth","type":"address","internalType":"address"}],"stateMutability":"nonpayable"},{"type":"function","name":"addLiquidity","inputs":[{"name":"poolKey","type":"tuple","internalType":"struct PoolKey","components":[{"name":"currency0","type":"address","internalType":"Currency"},{"name":"currency1","type":"address","internalType":"Currency"},{"name":"fee","type":"uint24","internalType":"uint24"},{"name":"tickSpacing","type":"int24","internalType":"int24"},{"name":"hooks","type":"address","internalType":"contract IHooks"}]},{"name":"amount0","type":"uint256","internalType":"uint256"},{"name":"amount1","type":"uint256","internalType":"uint256"},{"name":"tickLower","type":"int24","internalType":"int24"},{"name":"tickUpper","type":"int24","internalType":"int24"},{"name":"salt","type":"bytes32","internalType":"bytes32"}],"outputs":[],"stateMutability":"nonpayable"},{"type":"function","name":"computeSqrtPriceX96","inputs":[{"name":"poolKey","type":"tuple","internalType":"struct PoolKey","components":[{"name":"currency0","type":"address","internalType":"Currency"},{"name":"currency1","type":"address","internalType":"Currency"},{"name":"fee","type":"uint24","internalType":"uint24"},{"name":"tickSpacing","type":"int24","internalType":"int24"},{"name":"hooks","type":"address","internalType":"contract IHooks"}]}],"outputs":[{"name":"sqrtPriceX96","type":"uint160","internalType":"uint160"}],"stateMutability":"view"},{"type":"function","name":"getLatestPrice","inputs":[{"name":"token","type":"address","internalType":"address"}],"outputs":[{"name":"","type":"uint256","internalType":"uint256"}],"stateMutability":"view"},{"type":"function","name":"initializePoolWithChainlink","inputs":[{"name":"poolKey","type":"tuple","internalType":"struct PoolKey","components":[{"name":"currency0","type":"address","internalType":"Currency"},{"name":"currency1","type":"address","internalType":"Currency"},{"name":"fee","type":"uint24","internalType":"uint24"},{"name":"tickSpacing","type":"int24","internalType":"int24"},{"name":"hooks","type":"address","internalType":"contract IHooks"}]}],"outputs":[],"stateMutability":"nonpayable"},{"type":"function","name":"poolManager","inputs":[],"outputs":[{"name":"","type":"address","internalType":"contract IPoolManager"}],"stateMutability":"view"},{"type":"function","name":"priceFeeds","inputs":[{"name":"","type":"address","internalType":"address"}],"outputs":[{"name":"","type":"address","internalType":"address"}],"stateMutability":"view"},{"type":"function","name":"removeLiquidity","inputs":[{"name":"poolKey","type":"tuple","internalType":"struct PoolKey","components":[{"name":"currency0","type":"address","internalType":"Currency"},{"name":"currency1","type":"address","internalType":"Currency"},{"name":"fee","type":"uint24","internalType":"uint24"},{"name":"tickSpacing","type":"int24","internalType":"int24"},{"name":"hooks","type":"address","internalType":"contract IHooks"}]},{"name":"liquidity","type":"uint256","internalType":"uint256"},{"name":"tickLower","type":"int24","internalType":"int24"},{"name":"tickUpper","type":"int24","internalType":"int24"},{"name":"salt","type":"bytes32","internalType":"bytes32"}],"outputs":[],"stateMutability":"nonpayable"},{"type":"function","name":"setPriceFeed","inputs":[{"name":"token","type":"address","internalType":"address"},{"name":"feed","type":"address","internalType":"address"}],"outputs":[],"stateMutability":"nonpayable"},{"type":"function","name":"swapExactInputSingle","inputs":[{"name":"poolKey","type":"tuple","internalType":"struct PoolKey","components":[{"name":"currency0","type":"address","internalType":"Currency"},{"name":"currency1","type":"address","internalType":"Currency"},{"name":"fee","type":"uint24","internalType":"uint24"},{"name":"tickSpacing","type":"int24","internalType":"int24"},{"name":"hooks","type":"address","internalType":"contract IHooks"}]},{"name":"amountIn","type":"uint256","internalType":"uint256"},{"name":"deadline","type":"uint256","internalType":"uint256"},{"name":"maxSlippage","type":"uint256","internalType":"uint256"}],"outputs":[],"stateMutability":"nonpayable"},{"type":"function","name":"unlockCallback","inputs":[{"name":"data","type":"bytes","internalType":"bytes"}],"outputs":[{"name":"","type":"bytes","internalType":"bytes"}],"stateMutability":"nonpayable"},{"type":"function","name":"weth","inputs":[],"outputs":[{"name":"","type":"address","internalType":"address"}],"stateMutability":"view"},{"type":"event","name":"LiquidityAdded","inputs":[{"name":"token0","type":"address","indexed":true,"internalType":"address"},{"name":"token1","type":"address","indexed":true,"internalType":"address"},{"name":"sender","type":"address","indexed":true,"internalType":"address"},{"name":"amount0","type":"uint256","indexed":false,"internalType":"uint256"},{"name":"amount1","type":"uint256","indexed":false,"internalType":"uint256"}],"anonymous":false},{"type":"event","name":"LiquidityRemoved","inputs":[{"name":"token0","type":"address","indexed":true,"internalType":"address"},{"name":"token1","type":"address","indexed":true,"internalType":"address"},{"name":"sender","type":"address","indexed":true,"internalType":"address"},{"name":"liquidity","type":"uint256","indexed":false,"internalType":"uint256"}],"anonymous":false},{"type":"event","name":"PoolInitialized","inputs":[{"name":"token0","type":"address","indexed":true,"internalType":"address"},{"name":"token1","type":"address","indexed":true,"internalType":"address"},{"name":"sqrtPriceX96","type":"uint160","indexed":false,"internalType":"uint160"}],"anonymous":false},{"type":"event","name":"SwapExecuted","inputs":[{"name":"token0","type":"address","indexed":true,"internalType":"address"},{"name":"token1","type":"address","indexed":true,"internalType":"address"},{"name":"sender","type":"address","indexed":true,"internalType":"address"},{"name":"amountIn","type":"uint256","indexed":false,"internalType":"uint256"},{"name":"amountOut","type":"uint256","indexed":false,"internalType":"uint256"}],"anonymous":false},{"type":"error","name":"NotPoolManager","inputs":[]},{"type":"error","name":"SafeERC20FailedOperation","inputs":[{"name":"token","type":"address","internalType":"address"}]}],"bytecode":{"object":"0x60a03460b257601f611d2d38819003918201601f19168301916001600160401b0383118484101760b657808492604094855283398101031260b2578051906001600160a01b038216820360b257602001516001600160a01b038116919082900360b2576080525f80546001600160a01b031916919091179055604051611c6290816100cb823960805181818160a70152818161018c015281816103ef015281816105c50152818161088f0152610cbb0152f35b5f80fd5b634e487b7160e01b5f52604160045260245ffdfe60806040526004361015610011575f80fd5b5f3560e01c80630ba1d6e51461105857806316345f181461102d5780633fc8cef31461100657806369649c1914610bb057806376e1128614610b5857806385e0341e146107cb57806391dd7346146105735780639dcb511a14610533578063af9d04941461035c578063cd0d0332146100da5763dc4c90d314610092575f80fd5b346100d6575f3660031901126100d6576040517f00000000000000000000000000000000000000000000000000000000000000006001600160a01b03168152602090f35b5f80fd5b346100d65760a03660031901126100d6576100f436611122565b80516001600160a01b039081165f908152600160205260409020541615610317576020810160018060a01b038151165f52600160205260018060a01b0360405f205416156102d257610145826111d3565b916101875f60405161016d8161015f88876020840161176a565b03601f1981018352826110c6565b604051809381926348c8949160e01b8352600483016111a9565b0381837f00000000000000000000000000000000000000000000000000000000000000006001600160a01b03165af180156102c757610205575b505190516040516001600160a01b03938416815290831692909116907fe60552f09d8264482f038156bcd43151fb32b5419918a9c1512ff150fac91b3690602090a3005b903d805f843e61021581846110c6565b8201916020818403126100d65780519067ffffffffffffffff82116100d657019082601f830112156100d65781519267ffffffffffffffff84116102b3576040519061026b601f8601601f1916602001836110c6565b848252602085850101116100d6575f6020857fe60552f09d8264482f038156bcd43151fb32b5419918a9c1512ff150fac91b3696828097018386015e830101525091506101c1565b634e487b7160e01b5f52604160045260245ffd5b6040513d5f823e3d90fd5b60405162461bcd60e51b815260206004820152601d60248201527f5072696365206665656420666f7220746f6b656e31206e6f74207365740000006044820152606490fd5b60405162461bcd60e51b815260206004820152601d60248201527f5072696365206665656420666f7220746f6b656e30206e6f74207365740000006044820152606490fd5b346100d6576101203660031901126100d65761037736611122565b60a4359060c435908160020b8092036100d657610392611112565b83156104ee57600160ff1b84146104da576103ea926040918251916103b68361108e565b825260020b6020820152845f0382820152610104356060820152815180948192632d35e7ed60e11b8352856004840161171c565b03815f7f00000000000000000000000000000000000000000000000000000000000000006001600160a01b03165af19182156102c7575f926104a8575b50805161044790608084901d600f0b9033906001600160a01b0316611b99565b610465602082019260018060a01b0384511690600f0b903390611b99565b51905160405192835233926001600160a01b0391821692909116907f94f1f3125c0ce3e87e73be7798f37f42710fa4c304b51ee82698965e200afa7390602090a4005b6104cb91925060403d6040116104d3575b6104c381836110c6565b810190611706565b509083610427565b503d6104b9565b634e487b7160e01b5f52601160045260245ffd5b60405162461bcd60e51b815260206004820152601860248201527f496e76616c6964206c697175696469747920616d6f756e7400000000000000006044820152606490fd5b346100d65760203660031901126100d6576001600160a01b036105546110e8565b165f526001602052602060018060a01b0360405f205416604051908152f35b346100d65760203660031901126100d65760043567ffffffffffffffff81116100d657366023820112156100d65780600401359067ffffffffffffffff82116100d6578181013660248201116100d6577f00000000000000000000000000000000000000000000000000000000000000006001600160a01b031692338490036107bc57604051610602816110aa565b5f81525f60208201525f60408201525f60608201525f608082015261062e6040519160208301906116b6565b5f60c082015260c0815261064360e0826110c6565b51036107775760c0828203126100d65760a090829003126100d6576040519061066b826110aa565b610677602482016110fe565b8252610685604482016110fe565b6020830152606481013562ffffff811681036100d657604083015260848101358060020b81036100d657606083015260a4810135906001600160a01b03821682036100d657608083019190915260c401356001600160a01b03811681036100d65761070a926020925f60405180968195829463313b65df60e11b84526004840161176a565b03925af180156102c75761073e575b5061073a60405161072b6020826110c6565b5f8152604051918291826111a9565b0390f35b6020813d60201161076f575b81610757602093836110c6565b810103126100d657518060020b036100d65780610719565b3d915061074a565b60405162461bcd60e51b815260206004820152601b60248201527f496e76616c696420756e6c6f636b43616c6c6261636b206461746100000000006044820152606490fd5b63570c108560e11b5f5260045ffd5b346100d6576101403660031901126100d6576107e636611122565b60c43560a4356107f4611112565b9161010435938460020b8095036100d65782151580610b4f575b15610b185780516020808301516040516370a0823160e01b8152306004820152976001600160a01b03918216979390911695929188602481895afa9788156102c7575f98610ae4575b506040516370a0823160e01b8152306004820152936020856024818b5afa9485156102c7575f95610aa9575b506109109260409290917f00000000000000000000000000000000000000000000000000000000000000006001600160a01b0316916108c48784338d611b4e565b6108d08984338e611b4e565b8451936108dc8561108e565b60020b8452602084015285848401526101243560608401525f8451809681958294632d35e7ed60e11b84526004840161171c565b03925af180156102c757610a8b575b506040516370a0823160e01b815230600482015295602087602481885afa9687156102c7575f97610a57575b506040516370a0823160e01b8152306004820152966020886024818a5afa9788156102c7575f98610a15575b506109a2926109a283836109ae9897956109a895116109fc575b858c8181116109e1575b50506116f9565b906116f9565b966116f9565b60405193845260208401527fb5bf3f2c68363aa6e695c29010485bcfecb5439239c6b1306fdec5b26cb7c62e60403394a4005b6109f5916109ee916116f9565b338d611b99565b858c61099b565b610a10610a0983836116f9565b338c611b99565b610991565b929493919097506020833d602011610a4f575b81610a35602093836110c6565b810103126100d657915196929390929091906109a2610977565b3d9150610a28565b9096506020813d602011610a83575b81610a73602093836110c6565b810103126100d65751958761094b565b3d9150610a66565b610aa39060403d6040116104d3576104c381836110c6565b5061091f565b91929094506020823d602011610adc575b81610ac7602093836110c6565b810103126100d6579051939091906040610883565b3d9150610aba565b9097506020813d602011610b10575b81610b00602093836110c6565b810103126100d657519688610857565b3d9150610af3565b60405162461bcd60e51b815260206004820152600f60248201526e496e76616c696420616d6f756e747360881b6044820152606490fd5b5081151561080e565b346100d65760403660031901126100d657610b716110e8565b6024356001600160a01b03811691908290036100d6576001600160a01b03165f90815260016020526040902080546001600160a01b0319169091179055005b346100d6576101003660031901126100d657610bcb36611122565b60a4359060c4354211610fcb578115610f90576001600160a01b03610bef826111d3565b1660e435606401806064116104da576001600160a01b0391606491610c139161150c565b041660018060a01b038251169060018060a01b036020840151169283831094855f14610f895783955b8015610f825785965b6040516370a0823160e01b8152306004820152976001600160a01b03919091169390602089602481885afa9889156102c7575f99610f4e575b506040516370a0823160e01b8152306004820152956001600160a01b03919091169290602087602481875afa9687156102c7575f97610f1a575b507f00000000000000000000000000000000000000000000000000000000000000006001600160a01b031691610cf08684338a611b4e565b604051936060850185811067ffffffffffffffff8211176102b357602094610d4694610144945f9360405288528688018a8152604089019182526040519889978896633cf3645360e21b885260048801906116b6565b51151560a48601525160c4850152516001600160a01b031660e484015261012061010484015261012483018290525af180156102c757610eeb575b506040516370a0823160e01b8152306004820152602081602481875afa9081156102c7575f91610eb9575b506040516370a0823160e01b815230600482015294602086602481865afa9081156102c7575f91610e83575b610e19965080821115610e7a57610dee916116f9565b975b80821115610e7157610e01916116f9565b925b8380610e5f575b50508680610e4d5750506116f9565b9260405193845260208401527f764f0dc063c06f32d89a3f3af80c0db4be8a090901f589a478b447e0a51f09f160403394a4005b610e58913390611b99565b868661099b565b610e6a913390611b99565b8783610e0a565b50505f92610e03565b50505f97610df0565b90506020863d602011610eb1575b81610e9e602093836110c6565b810103126100d657610e19955190610dd8565b3d9150610e91565b90506020813d602011610ee3575b81610ed4602093836110c6565b810103126100d6575188610dac565b3d9150610ec7565b6020813d602011610f12575b81610f04602093836110c6565b810103126100d65751610d81565b3d9150610ef7565b9096506020813d602011610f46575b81610f36602093836110c6565b810103126100d65751958a610cb8565b3d9150610f29565b9098506020813d602011610f7a575b81610f6a602093836110c6565b810103126100d657519789610c7e565b3d9150610f5d565b8496610c45565b8495610c3c565b60405162461bcd60e51b8152602060048201526013602482015272125b9d985b1a59081cddd85c08185b5bdd5b9d606a1b6044820152606490fd5b60405162461bcd60e51b8152602060048201526013602482015272151c985b9cd858dd1a5bdb88195e1c1a5c9959606a1b6044820152606490fd5b346100d6575f3660031901126100d6575f546040516001600160a01b039091168152602090f35b346100d65760203660031901126100d657602061105061104b6110e8565b61151f565b604051908152f35b346100d65760a03660031901126100d657602061107c61107736611122565b6111d3565b6040516001600160a01b039091168152f35b6080810190811067ffffffffffffffff8211176102b357604052565b60a0810190811067ffffffffffffffff8211176102b357604052565b90601f8019910116810190811067ffffffffffffffff8211176102b357604052565b600435906001600160a01b03821682036100d657565b35906001600160a01b03821682036100d657565b60e435908160020b82036100d657565b60a09060031901126100d6576040519061113b826110aa565b816004356001600160a01b03811681036100d65781526024356001600160a01b03811681036100d657602082015260443562ffffff811681036100d65760408201526064358060020b81036100d6576060820152608435906001600160a01b03821682036100d65760800152565b602060409281835280519182918282860152018484015e5f828201840152601f01601f1916010190565b80516112099190611204906111f0906001600160a01b031661151f565b6020909201516001600160a01b031661151f565b61178a565b6001600160a01b03818116919073fffd8963efd1fc6a506488495d951d51639616826401000276a2198401909116116114e25760201b640100000000600160c01b03168080156100d65760ff826fffffffffffffffffffffffffffffffff1060071b83811c67ffffffffffffffff1060061b1783811c63ffffffff1060051b1783811c61ffff1060041b1783811c821060031b177f07060605060205000602030205040001060502050303040105050304000000006f8421084210842108cc6318c6db6d54be85831c1c601f161a17169160808310155f146114d65750607e1982011c5b800280607f1c8160ff1c1c800280607f1c8160ff1c1c800280607f1c8160ff1c1c800280607f1c8160ff1c1c800280607f1c8160ff1c1c800280607f1c8160ff1c1c80029081607f1c8260ff1c1c80029283607f1c8460ff1c1c80029485607f1c8660ff1c1c80029687607f1c8860ff1c1c80029889607f1c8a60ff1c1c80029a8b607f1c8c60ff1c1c80029c8d80607f1c9060ff1c1c800260cd1c6604000000000000169d60cc1c6608000000000000169c60cb1c6610000000000000169b60ca1c6620000000000000169a60c91c6640000000000000169960c81c6680000000000000169860c71c670100000000000000169760c61c670200000000000000169660c51c670400000000000000169560c41c670800000000000000169460c31c671000000000000000169360c21c672000000000000000169260c11c674000000000000000169160c01c6780000000000000001690607f190160401b1717171717171717171717171717693627a301d71055774c85026f028f6481ab7f045a5af012a19d003aa919810160801d60020b906fdb2df09e81959a81455e260799a0632f0160801d60020b908181145f14926114af936114b257509050611821565b90565b6001600160a01b036114c384611821565b16116114cf5750611821565b9050611821565b905081607f031b6112ed565b506318521d4960e21b5f5260045260245ffd5b519069ffffffffffffffffffff821682036100d657565b818102929181159184041417156104da57565b6001600160a01b039081165f9081526001602052604090205416801561167c57604051633fabe5a360e21b81529060a082600481845afa9182156102c7575f9261162d575b505f8213156115f85760206004916040519283809263313ce56760e01b82525afa80156102c7575f906115bb575b60ff91501660120360ff81116104da5760ff1690604d82116104da576114af91600a0a9061150c565b506020813d6020116115f0575b816115d5602093836110c6565b810103126100d6575160ff811681036100d65760ff90611592565b3d91506115c8565b60405162461bcd60e51b815260206004820152600d60248201526c496e76616c696420707269636560981b6044820152606490fd5b90915060a0813d60a011611674575b8161164960a093836110c6565b810103126100d65761165a816114f5565b5061166c6080602083015192016114f5565b50905f611564565b3d915061163c565b60405162461bcd60e51b8152602060048201526012602482015271141c9a58d94819995959081b9bdd081cd95d60721b6044820152606490fd5b80516001600160a01b03908116835260208083015182169084015260408083015162ffffff169084015260608083015160020b9084015260809182015116910152565b919082039182116104da57565b91908260409103126100d6576020825192015190565b906101609261172d836060936116b6565b805160020b60a0840152602081015160020b60c0840152604081015160e084015201516101008201526101406101208201525f6101408201520190565b90929160a09061177e8360c08101966116b6565b600180831b0316910152565b90670de0b6b3a76400008202905f19670de0b6b3a76400008409928280851094039380850394858411156100d6571461181a57670de0b6b3a764000082910981805f03168092046002816003021880820260020302808202600203028082026002030280820260020302808202600203028091026002030293600183805f03040190848311900302920304170290565b5091500490565b60020b908160ff1d82810118620d89e88111611b3b5763ffffffff9192600182167001fffcb933bd6fad37aa2d162d1a59400102600160801b189160028116611b1f575b60048116611b03575b60088116611ae7575b60108116611acb575b60208116611aaf575b60408116611a93575b60808116611a77575b6101008116611a5b575b6102008116611a3f575b6104008116611a23575b6108008116611a07575b61100081166119eb575b61200081166119cf575b61400081166119b3575b6180008116611997575b62010000811661197b575b620200008116611960575b620400008116611945575b620800001661192c575b5f12611924575b0160201c90565b5f190461191d565b6b048a170391f7dc42444e8fa290910260801c90611916565b6d2216e584f5fa1ea926041bedfe9890920260801c9161190c565b916e5d6af8dedb81196699c329225ee6040260801c91611901565b916f09aa508b5b7a84e1c677de54f3e99bc90260801c916118f6565b916f31be135f97d08fd981231505542fcfa60260801c916118eb565b916f70d869a156d2a1b890bb3df62baf32f70260801c916118e1565b916fa9f746462d870fdf8a65dc1f90e061e50260801c916118d7565b916fd097f3bdfd2022b8845ad8f792aa58250260801c916118cd565b916fe7159475a2c29b7443b29c7fa6e889d90260801c916118c3565b916ff3392b0822b70005940c7a398e4b70f30260801c916118b9565b916ff987a7253ac413176f2b074cf7815e540260801c916118af565b916ffcbe86c7900a88aedcffc83b479aa3a40260801c916118a5565b916ffe5dee046a99a2a811c461f1969c30530260801c9161189b565b916fff2ea16466c96a3843ec78b326b528610260801c91611892565b916fff973b41fa98c081472e6896dfb254c00260801c91611889565b916fffcb9843d60f6159c9db58835c9266440260801c91611880565b916fffe5caca7e10e4e61c3624eaa0941cd00260801c91611877565b916ffff2e50f5f656932ef12357cf3c7fdcc0260801c9161186e565b916ffff97272373d413259a46990580e213a0260801c91611865565b826345c3193d60e11b5f5260045260245ffd5b6040516323b872dd60e01b60208201526001600160a01b039283166024820152929091166044830152606480830193909352918152611b9791611b926084836110c6565b611bd4565b565b60405163a9059cbb60e01b60208201526001600160a01b039092166024830152604480830193909352918152611b9791611b926064836110c6565b905f602091828151910182855af1156102c7575f513d611c2357506001600160a01b0381163b155b611c035750565b635274afe760e01b5f9081526001600160a01b0391909116600452602490fd5b60011415611bfc56fea2646970667358221220ffb8d378713fdd934f16136a9719b9dc7e3956a7f624fae69b1c72d2d401428e64736f6c634300081a0033","linkReferences":{}},"methodIdentifiers":{"addLiquidity((address,address,uint24,int24,address),uint256,uint256,int24,int24,bytes32)":"85e0341e","computeSqrtPriceX96((address,address,uint24,int24,address))":"0ba1d6e5","getLatestPrice(address)":"16345f18","initializePoolWithChainlink((address,address,uint24,int24,address))":"cd0d0332","poolManager()":"dc4c90d3","priceFeeds(address)":"9dcb511a","removeLiquidity((address,address,uint24,int24,address),uint256,int24,int24,bytes32)":"af9d0494","setPriceFeed(address,address)":"76e11286","swapExactInputSingle((address,address,uint24,int24,address),uint256,uint256,uint256)":"69649c19","unlockCallback(bytes)":"91dd7346","weth()":"3fc8cef3"},"id":0}