{"abi":[{"type":"constructor","inputs":[{"name":"_poolManager","type":"address","internalType":"contract IPoolManager"},{"name":"_weth","type":"address","internalType":"address"}],"stateMutability":"nonpayable"},{"type":"function","name":"addLiquidity","inputs":[{"name":"poolKey","type":"tuple","internalType":"struct PoolKey","components":[{"name":"currency0","type":"address","internalType":"Currency"},{"name":"currency1","type":"address","internalType":"Currency"},{"name":"fee","type":"uint24","internalType":"uint24"},{"name":"tickSpacing","type":"int24","internalType":"int24"},{"name":"hooks","type":"address","internalType":"contract IHooks"}]},{"name":"amount0","type":"uint256","internalType":"uint256"},{"name":"amount1","type":"uint256","internalType":"uint256"},{"name":"tickLower","type":"int24","internalType":"int24"},{"name":"tickUpper","type":"int24","internalType":"int24"},{"name":"salt","type":"bytes32","internalType":"bytes32"}],"outputs":[],"stateMutability":"nonpayable"},{"type":"function","name":"computeSqrtPriceX96","inputs":[{"name":"poolKey","type":"tuple","internalType":"struct PoolKey","components":[{"name":"currency0","type":"address","internalType":"Currency"},{"name":"currency1","type":"address","internalType":"Currency"},{"name":"fee","type":"uint24","internalType":"uint24"},{"name":"tickSpacing","type":"int24","internalType":"int24"},{"name":"hooks","type":"address","internalType":"contract IHooks"}]}],"outputs":[{"name":"sqrtPriceX96","type":"uint160","internalType":"uint160"}],"stateMutability":"view"},{"type":"function","name":"getLatestPrice","inputs":[{"name":"token","type":"address","internalType":"address"}],"outputs":[{"name":"","type":"uint256","internalType":"uint256"}],"stateMutability":"view"},{"type":"function","name":"initializePoolWithChainlink","inputs":[{"name":"poolKey","type":"tuple","internalType":"struct PoolKey","components":[{"name":"currency0","type":"address","internalType":"Currency"},{"name":"currency1","type":"address","internalType":"Currency"},{"name":"fee","type":"uint24","internalType":"uint24"},{"name":"tickSpacing","type":"int24","internalType":"int24"},{"name":"hooks","type":"address","internalType":"contract IHooks"}]}],"outputs":[],"stateMutability":"nonpayable"},{"type":"function","name":"poolManager","inputs":[],"outputs":[{"name":"","type":"address","internalType":"contract IPoolManager"}],"stateMutability":"view"},{"type":"function","name":"priceFeeds","inputs":[{"name":"","type":"address","internalType":"address"}],"outputs":[{"name":"","type":"address","internalType":"address"}],"stateMutability":"view"},{"type":"function","name":"removeLiquidity","inputs":[{"name":"poolKey","type":"tuple","internalType":"struct PoolKey","components":[{"name":"currency0","type":"address","internalType":"Currency"},{"name":"currency1","type":"address","internalType":"Currency"},{"name":"fee","type":"uint24","internalType":"uint24"},{"name":"tickSpacing","type":"int24","internalType":"int24"},{"name":"hooks","type":"address","internalType":"contract IHooks"}]},{"name":"liquidity","type":"uint256","internalType":"uint256"},{"name":"tickLower","type":"int24","internalType":"int24"},{"name":"tickUpper","type":"int24","internalType":"int24"},{"name":"salt","type":"bytes32","internalType":"bytes32"}],"outputs":[],"stateMutability":"nonpayable"},{"type":"function","name":"setPriceFeed","inputs":[{"name":"token","type":"address","internalType":"address"},{"name":"feed","type":"address","internalType":"address"}],"outputs":[],"stateMutability":"nonpayable"},{"type":"function","name":"swapExactInputSingle","inputs":[{"name":"poolKey","type":"tuple","internalType":"struct PoolKey","components":[{"name":"currency0","type":"address","internalType":"Currency"},{"name":"currency1","type":"address","internalType":"Currency"},{"name":"fee","type":"uint24","internalType":"uint24"},{"name":"tickSpacing","type":"int24","internalType":"int24"},{"name":"hooks","type":"address","internalType":"contract IHooks"}]},{"name":"amountIn","type":"uint256","internalType":"uint256"},{"name":"deadline","type":"uint256","internalType":"uint256"},{"name":"maxSlippage","type":"uint256","internalType":"uint256"}],"outputs":[],"stateMutability":"nonpayable"},{"type":"function","name":"unlockCallback","inputs":[{"name":"data","type":"bytes","internalType":"bytes"}],"outputs":[{"name":"","type":"bytes","internalType":"bytes"}],"stateMutability":"nonpayable"},{"type":"function","name":"weth","inputs":[],"outputs":[{"name":"","type":"address","internalType":"address"}],"stateMutability":"view"},{"type":"event","name":"LiquidityAdded","inputs":[{"name":"token0","type":"address","indexed":true,"internalType":"address"},{"name":"token1","type":"address","indexed":true,"internalType":"address"},{"name":"sender","type":"address","indexed":true,"internalType":"address"},{"name":"amount0","type":"uint256","indexed":false,"internalType":"uint256"},{"name":"amount1","type":"uint256","indexed":false,"internalType":"uint256"}],"anonymous":false},{"type":"event","name":"LiquidityRemoved","inputs":[{"name":"token0","type":"address","indexed":true,"internalType":"address"},{"name":"token1","type":"address","indexed":true,"internalType":"address"},{"name":"sender","type":"address","indexed":true,"internalType":"address"},{"name":"liquidity","type":"uint256","indexed":false,"internalType":"uint256"}],"anonymous":false},{"type":"event","name":"SwapExecuted","inputs":[{"name":"token0","type":"address","indexed":true,"internalType":"address"},{"name":"token1","type":"address","indexed":true,"internalType":"address"},{"name":"sender","type":"address","indexed":true,"internalType":"address"},{"name":"amountIn","type":"uint256","indexed":false,"internalType":"uint256"},{"name":"amountOut","type":"uint256","indexed":false,"internalType":"uint256"}],"anonymous":false},{"type":"error","name":"NotPoolManager","inputs":[]},{"type":"error","name":"SafeERC20FailedOperation","inputs":[{"name":"token","type":"address","internalType":"address"}]}],"bytecode":{"object":"0x60a0604052348015600e575f80fd5b50604051611d0a380380611d0a833981016040819052602b916067565b6001600160a01b039182166080525f80546001600160a01b03191691909216179055609a565b6001600160a01b03811681146064575f80fd5b50565b5f80604083850312156077575f80fd5b82516080816051565b6020840151909250608f816051565b809150509250929050565b608051611c196100f15f395f81816101e3015281816104fb0152818161053901528181610708015281816107420152818161077e015281816108730152818161094a01528181610ba6015261124e0152611c195ff3fe608060405234801561000f575f80fd5b50600436106100a6575f3560e01c806385e0341e1161006e57806385e0341e1461015d57806391dd7346146101705780639dcb511a14610190578063af9d0494146101b8578063cd0d0332146101cb578063dc4c90d3146101de575f80fd5b80630ba1d6e5146100aa57806316345f18146100da5780633fc8cef3146100fb57806369649c191461010d57806376e1128614610122575b5f80fd5b6100bd6100b8366004611587565b610205565b6040516001600160a01b0390911681526020015b60405180910390f35b6100ed6100e83660046115a1565b61025f565b6040519081526020016100d1565b5f546100bd906001600160a01b031681565b61012061011b3660046115c3565b6103f9565b005b6101206101303660046115fb565b6001600160a01b039182165f90815260016020526040902080546001600160a01b03191691909216179055565b61012061016b366004611632565b610684565b61018361017e366004611697565b610866565b6040516100d19190611705565b6100bd61019e3660046115a1565b60016020525f90815260409020546001600160a01b031681565b6101206101c636600461173a565b6108c4565b6101206101d9366004611587565b610a8a565b6100bd7f000000000000000000000000000000000000000000000000000000000000000081565b5f80610213835f015161025f565b90505f610223846020015161025f565b90505f61024b8361023c84670de0b6b3a76400006117a6565b61024691906117bd565b610c23565b905061025681610eb3565b95945050505050565b6001600160a01b038082165f90815260016020526040812054909116806102c25760405162461bcd60e51b8152602060048201526012602482015271141c9a58d94819995959081b9bdd081cd95d60721b60448201526064015b60405180910390fd5b5f8190505f816001600160a01b031663feaf968c6040518163ffffffff1660e01b815260040160a060405180830381865afa158015610303573d5f803e3d5ffd5b505050506040513d601f19601f8201168201806040525081019061032791906117fa565b5050509150505f811361036c5760405162461bcd60e51b815260206004820152600d60248201526c496e76616c696420707269636560981b60448201526064016102b9565b5f826001600160a01b031663313ce5676040518163ffffffff1660e01b8152600401602060405180830381865afa1580156103a9573d5f803e3d5ffd5b505050506040513d601f19601f820116820180604052508101906103cd9190611848565b90506103da816012611868565b6103e590600a611964565b6103ef90836117a6565b9695505050505050565b8142111561043f5760405162461bcd60e51b8152602060048201526013602482015272151c985b9cd858dd1a5bdb88195e1c1a5c9959606a1b60448201526064016102b9565b5f83116104845760405162461bcd60e51b8152602060048201526013602482015272125b9d985b1a59081cddd85c08185b5bdd5b9d606a1b60448201526064016102b9565b5f61048e85610205565b90505f606461049d8482611972565b6104b0906001600160a01b0385166117a6565b6104ba91906117bd565b604080516060810182526020808a01518a516001600160a01b03918216908216108352908201899052808416928201929092528851929350916105209116337f00000000000000000000000000000000000000000000000000000000000000008961116b565b604051633cf3645360e21b81525f906001600160a01b037f0000000000000000000000000000000000000000000000000000000000000000169063f3cd914c90610570908b9086906004016119c8565b6020604051808303815f875af115801561058c573d5f803e3d5ffd5b505050506040513d601f19601f820116820180604052508101906105b09190611a12565b90505f806105be83600f0b90565b600f0b136105d5576105d08260801d90565b6105df565b6105df82600f0b90565b90505f8082600f0b1215610604576105f682611a29565b6001600160801b031661060f565b816001600160801b03165b9050336001600160a01b03168a602001516001600160a01b03168b5f01516001600160a01b03167f764f0dc063c06f32d89a3f3af80c0db4be8a090901f589a478b447e0a51f09f18c85604051610670929190918252602082015260400190565b60405180910390a450505050505050505050565b5f8511801561069257505f84115b6106d05760405162461bcd60e51b815260206004820152600f60248201526e496e76616c696420616d6f756e747360881b60448201526064016102b9565b60408051608081018252600285810b825284900b602082015290810186905260608101829052865161072d906001600160a01b0316337f00000000000000000000000000000000000000000000000000000000000000008961116b565b6020870151610767906001600160a01b0316337f00000000000000000000000000000000000000000000000000000000000000008861116b565b604051632d35e7ed60e11b81526001600160a01b037f00000000000000000000000000000000000000000000000000000000000000001690635a6bcfda906107b5908a908590600401611a56565b60408051808303815f875af11580156107d0573d5f803e3d5ffd5b505050506040513d601f19601f820116820180604052508101906107f49190611aa7565b5050336001600160a01b031687602001516001600160a01b0316885f01516001600160a01b03167fb5bf3f2c68363aa6e695c29010485bcfecb5439239c6b1306fdec5b26cb7c62e8989604051610855929190918252602082015260400190565b60405180910390a450505050505050565b6060336001600160a01b037f000000000000000000000000000000000000000000000000000000000000000016146108b15760405163570c108560e11b815260040160405180910390fd5b6108bb83836111d2565b90505b92915050565b5f84116109135760405162461bcd60e51b815260206004820152601860248201527f496e76616c6964206c697175696469747920616d6f756e74000000000000000060448201526064016102b9565b5f60405180608001604052808560020b81526020018460020b81526020018661093b90611ac9565b81526020018381525090505f807f00000000000000000000000000000000000000000000000000000000000000006001600160a01b0316635a6bcfda89856040518363ffffffff1660e01b8152600401610996929190611a56565b60408051808303815f875af11580156109b1573d5f803e3d5ffd5b505050506040513d601f19601f820116820180604052508101906109d59190611aa7565b915091506109fc336109e78460801d90565b8a516001600160a01b03169190600f0b61132b565b610a2233610a0a84600f0b90565b60208b01516001600160a01b03169190600f0b61132b565b336001600160a01b031688602001516001600160a01b0316895f01516001600160a01b03167f94f1f3125c0ce3e87e73be7798f37f42710fa4c304b51ee82698965e200afa738a604051610a7891815260200190565b60405180910390a45050505050505050565b80516001600160a01b039081165f9081526001602052604090205416610af25760405162461bcd60e51b815260206004820152601d60248201527f5072696365206665656420666f7220746f6b656e30206e6f742073657400000060448201526064016102b9565b6020808201516001600160a01b039081165f908152600190925260409091205416610b5f5760405162461bcd60e51b815260206004820152601d60248201527f5072696365206665656420666f7220746f6b656e31206e6f742073657400000060448201526064016102b9565b5f610b6982610205565b90505f8282604051602001610b7f929190611ae3565b60408051601f19818403018152908290526348c8949160e01b825291506001600160a01b037f000000000000000000000000000000000000000000000000000000000000000016906348c8949190610bdb908490600401611705565b5f604051808303815f875af1158015610bf6573d5f803e3d5ffd5b505050506040513d5f823e601f3d908101601f19168201604052610c1d9190810190611b09565b50505050565b5f73fffd8963efd1fc6a506488495d951d51639616826401000276a21983016001600160a01b03161115610c6257610c626318521d4960e21b83611361565b640100000000600160c01b03602083901b16805f610c7f82611376565b60ff16905060808110610c9a57607f810383901c9150610ca4565b80607f0383901b91505b908002607f81811c60ff83811c9190911c800280831c81831c1c800280841c81841c1c800280851c81851c1c800280861c81861c1c800280871c81871c1c800280881c81881c1c800280891c81891c1c8002808a1c818a1c1c8002808b1c818b1c1c8002808c1c818c1c1c8002808d1c818d1c1c8002808e1c9c81901c9c909c1c80029c8d901c9e9d607f198f0160401b60c09190911c678000000000000000161760c19b909b1c674000000000000000169a909a1760c29990991c672000000000000000169890981760c39790971c671000000000000000169690961760c49590951c670800000000000000169490941760c59390931c670400000000000000169290921760c69190911c670200000000000000161760c79190911c670100000000000000161760c89190911c6680000000000000161760c99190911c6640000000000000161760ca9190911c6620000000000000161760cb9190911c6610000000000000161760cc9190911c6608000000000000161760cd9190911c66040000000000001617693627a301d71055774c8581026f028f6481ab7f045a5af012a19d003aa9198101608090811d906fdb2df09e81959a81455e260799a0632f8301901d600281810b9083900b14610ea457886001600160a01b0316610e8982610eb3565b6001600160a01b03161115610e9e5781610ea6565b80610ea6565b815b9998505050505050505050565b60020b5f60ff82901d80830118620d89e8811115610edc57610edc6345c3193d60e11b84611401565b7001fffcb933bd6fad37aa2d162d1a5940016001821602600160801b186002821615610f18576ffff97272373d413259a46990580e213a0260801c5b6004821615610f37576ffff2e50f5f656932ef12357cf3c7fdcc0260801c5b6008821615610f56576fffe5caca7e10e4e61c3624eaa0941cd00260801c5b6010821615610f75576fffcb9843d60f6159c9db58835c9266440260801c5b6020821615610f94576fff973b41fa98c081472e6896dfb254c00260801c5b6040821615610fb3576fff2ea16466c96a3843ec78b326b528610260801c5b6080821615610fd2576ffe5dee046a99a2a811c461f1969c30530260801c5b610100821615610ff2576ffcbe86c7900a88aedcffc83b479aa3a40260801c5b610200821615611012576ff987a7253ac413176f2b074cf7815e540260801c5b610400821615611032576ff3392b0822b70005940c7a398e4b70f30260801c5b610800821615611052576fe7159475a2c29b7443b29c7fa6e889d90260801c5b611000821615611072576fd097f3bdfd2022b8845ad8f792aa58250260801c5b612000821615611092576fa9f746462d870fdf8a65dc1f90e061e50260801c5b6140008216156110b2576f70d869a156d2a1b890bb3df62baf32f70260801c5b6180008216156110d2576f31be135f97d08fd981231505542fcfa60260801c5b620100008216156110f3576f09aa508b5b7a84e1c677de54f3e99bc90260801c5b62020000821615611113576e5d6af8dedb81196699c329225ee6040260801c5b62040000821615611132576d2216e584f5fa1ea926041bedfe980260801c5b6208000082161561114f576b048a170391f7dc42444e8fa20260801c5b5f84131561115b575f19045b63ffffffff0160201c9392505050565b6040516001600160a01b038481166024830152838116604483015260648201839052610c1d9186918216906323b872dd906084015b604051602081830303815290604052915060e01b6020820180516001600160e01b038381831617835250505050611410565b6040805160a0810182525f8082526020808301829052828401829052606083810183905260808401839052935161120d928492909101611ae3565b60408051601f198184030181529190525183036112cd575f8061123285870187611b9d565b60405163313b65df60e11b815291935091506001600160a01b037f00000000000000000000000000000000000000000000000000000000000000001690636276cbbe906112859085908590600401611ae3565b6020604051808303815f875af11580156112a1573d5f803e3d5ffd5b505050506040513d601f19601f820116820180604052508101906112c59190611bc8565b505050611315565b60405162461bcd60e51b815260206004820152601b60248201527f496e76616c696420756e6c6f636b43616c6c6261636b2064617461000000000060448201526064016102b9565b505060408051602081019091525f815292915050565b6040516001600160a01b0383811660248301526044820183905261135c91859182169063a9059cbb906064016111a0565b505050565b815f526001600160a01b03811660045260245ffd5b5f808211611382575f80fd5b507f0706060506020500060203020504000106050205030304010505030400000000601f6f8421084210842108cc6318c6db6d54be6001600160801b03841160071b84811c67ffffffffffffffff1060061b1784811c63ffffffff1060051b1784811c61ffff1060041b1784811c60ff1060031b1793841c1c161a1790565b815f528060020b60045260245ffd5b5f8060205f8451602086015f885af18061142f576040513d5f823e3d81fd5b50505f513d91508115611446578060011415611453565b6001600160a01b0384163b155b15610c1d57604051635274afe760e01b81526001600160a01b03851660048201526024016102b9565b634e487b7160e01b5f52604160045260245ffd5b604051601f8201601f1916810167ffffffffffffffff811182821017156114b9576114b961147c565b604052919050565b6001600160a01b03811681146114d5575f80fd5b50565b8060020b81146114d5575f80fd5b5f60a082840312156114f6575f80fd5b60405160a0810167ffffffffffffffff811182821017156115195761151961147c565b604052905080823561152a816114c1565b8152602083013561153a816114c1565b6020820152604083013562ffffff81168114611554575f80fd5b60408201526060830135611567816114d8565b6060820152608083013561157a816114c1565b6080919091015292915050565b5f60a08284031215611597575f80fd5b6108bb83836114e6565b5f602082840312156115b1575f80fd5b81356115bc816114c1565b9392505050565b5f805f8061010085870312156115d7575f80fd5b6115e186866114e6565b9660a0860135965060c08601359560e00135945092505050565b5f806040838503121561160c575f80fd5b8235611617816114c1565b91506020830135611627816114c1565b809150509250929050565b5f805f805f806101408789031215611648575f80fd5b61165288886114e6565b955060a0870135945060c0870135935060e0870135611670816114d8565b9250610100870135611681816114d8565b9598949750929591949361012090920135925050565b5f80602083850312156116a8575f80fd5b823567ffffffffffffffff8111156116be575f80fd5b8301601f810185136116ce575f80fd5b803567ffffffffffffffff8111156116e4575f80fd5b8560208284010111156116f5575f80fd5b6020919091019590945092505050565b602081525f82518060208401528060208501604085015e5f604082850101526040601f19601f83011684010191505092915050565b5f805f805f610120868803121561174f575f80fd5b61175987876114e6565b945060a0860135935060c0860135611770816114d8565b925060e0860135611780816114d8565b94979396509194610100013592915050565b634e487b7160e01b5f52601160045260245ffd5b80820281158282048414176108be576108be611792565b5f826117d757634e487b7160e01b5f52601260045260245ffd5b500490565b805169ffffffffffffffffffff811681146117f5575f80fd5b919050565b5f805f805f60a0868803121561180e575f80fd5b611817866117dc565b6020870151604088015160608901519297509095509350915061183c608087016117dc565b90509295509295909350565b5f60208284031215611858575f80fd5b815160ff811681146115bc575f80fd5b60ff82811682821603908111156108be576108be611792565b6001815b60018411156118bc578085048111156118a0576118a0611792565b60018416156118ae57908102905b60019390931c928002611885565b935093915050565b5f826118d2575060016108be565b816118de57505f6108be565b81600181146118f457600281146118fe5761191a565b60019150506108be565b60ff84111561190f5761190f611792565b50506001821b6108be565b5060208310610133831016604e8410600b841016171561193d575081810a6108be565b6119495f198484611881565b805f190482111561195c5761195c611792565b029392505050565b5f6108bb60ff8416836118c4565b808201808211156108be576108be611792565b80516001600160a01b03908116835260208083015182169084015260408083015162ffffff169084015260608083015160020b9084015260809182015116910152565b6119d28184611985565b8151151560a0820152602082015160c08201526040909101516001600160a01b031660e082015261012061010082018190525f9082015261014001919050565b5f60208284031215611a22575f80fd5b5051919050565b5f81600f0b6f7fffffffffffffffffffffffffffffff198103611a4e57611a4e611792565b5f0392915050565b611a608184611985565b8151600290810b60a08301526020830151900b60c0820152604082015160e082015260609091015161010082015261014061012082018190525f9082015261016001919050565b5f8060408385031215611ab8575f80fd5b505080516020909101519092909150565b5f600160ff1b8201611add57611add611792565b505f0390565b60c08101611af18285611985565b6001600160a01b039290921660a09190910152919050565b5f60208284031215611b19575f80fd5b815167ffffffffffffffff811115611b2f575f80fd5b8201601f81018413611b3f575f80fd5b805167ffffffffffffffff811115611b5957611b5961147c565b611b6c601f8201601f1916602001611490565b818152856020838501011115611b80575f80fd5b8160208401602083015e5f91810160200191909152949350505050565b5f8060c08385031215611bae575f80fd5b611bb884846114e6565b915060a0830135611627816114c1565b5f60208284031215611bd8575f80fd5b81516115bc816114d856fea26469706673582212202f66e32f3507e91b83d9a8fa3119295be91bb46981b61ae87db048a4ae3a9e1464736f6c634300081a0033","linkReferences":{}},"methodIdentifiers":{"addLiquidity((address,address,uint24,int24,address),uint256,uint256,int24,int24,bytes32)":"85e0341e","computeSqrtPriceX96((address,address,uint24,int24,address))":"0ba1d6e5","getLatestPrice(address)":"16345f18","initializePoolWithChainlink((address,address,uint24,int24,address))":"cd0d0332","poolManager()":"dc4c90d3","priceFeeds(address)":"9dcb511a","removeLiquidity((address,address,uint24,int24,address),uint256,int24,int24,bytes32)":"af9d0494","setPriceFeed(address,address)":"76e11286","swapExactInputSingle((address,address,uint24,int24,address),uint256,uint256,uint256)":"69649c19","unlockCallback(bytes)":"91dd7346","weth()":"3fc8cef3"},"id":0}