{"abi":[{"type":"function","name":"ADDRESS_ZERO","inputs":[],"outputs":[{"name":"","type":"address","internalType":"Currency"}],"stateMutability":"view"},{"type":"error","name":"ERC20TransferFailed","inputs":[]},{"type":"error","name":"NativeTransferFailed","inputs":[]}],"bytecode":{"object":"0x608e6032600b8282823980515f1a607314602657634e487b7160e01b5f525f60045260245ffd5b305f52607381538281f3fe73000000000000000000000000000000000000000030146080604052600436106032575f3560e01c806366e79509146036575b5f80fd5b603c5f81565b6040516001600160a01b03909116815260200160405180910390f3fea2646970667358221220cd77c38f7555a6db6f4dc813d5f821c61682d9f82fbfff1a42c2bb6befccdc0f64736f6c634300081a0033","linkReferences":{}},"methodIdentifiers":{"ADDRESS_ZERO()":"66e79509"},"id":80}