{"abi":[{"type":"constructor","inputs":[{"name":"initialPrice","type":"int256","internalType":"int256"},{"name":"_decimals","type":"uint8","internalType":"uint8"}],"stateMutability":"nonpayable"},{"type":"function","name":"decimals","inputs":[],"outputs":[{"name":"","type":"uint8","internalType":"uint8"}],"stateMutability":"view"},{"type":"function","name":"description","inputs":[],"outputs":[{"name":"","type":"string","internalType":"string"}],"stateMutability":"pure"},{"type":"function","name":"getRoundData","inputs":[{"name":"_roundId","type":"uint80","internalType":"uint80"}],"outputs":[{"name":"","type":"uint80","internalType":"uint80"},{"name":"","type":"int256","internalType":"int256"},{"name":"","type":"uint256","internalType":"uint256"},{"name":"","type":"uint256","internalType":"uint256"},{"name":"","type":"uint80","internalType":"uint80"}],"stateMutability":"view"},{"type":"function","name":"latestRoundData","inputs":[],"outputs":[{"name":"","type":"uint80","internalType":"uint80"},{"name":"","type":"int256","internalType":"int256"},{"name":"","type":"uint256","internalType":"uint256"},{"name":"","type":"uint256","internalType":"uint256"},{"name":"","type":"uint80","internalType":"uint80"}],"stateMutability":"view"},{"type":"function","name":"owner","inputs":[],"outputs":[{"name":"","type":"address","internalType":"address"}],"stateMutability":"view"},{"type":"function","name":"renounceOwnership","inputs":[],"outputs":[],"stateMutability":"nonpayable"},{"type":"function","name":"transferOwnership","inputs":[{"name":"newOwner","type":"address","internalType":"address"}],"outputs":[],"stateMutability":"nonpayable"},{"type":"function","name":"updatePrice","inputs":[{"name":"newPrice","type":"int256","internalType":"int256"}],"outputs":[],"stateMutability":"nonpayable"},{"type":"function","name":"version","inputs":[],"outputs":[{"name":"","type":"uint256","internalType":"uint256"}],"stateMutability":"pure"},{"type":"event","name":"OwnershipTransferred","inputs":[{"name":"previousOwner","type":"address","indexed":true,"internalType":"address"},{"name":"newOwner","type":"address","indexed":true,"internalType":"address"}],"anonymous":false},{"type":"event","name":"PriceUpdated","inputs":[{"name":"newPrice","type":"int256","indexed":false,"internalType":"int256"},{"name":"timestamp","type":"uint256","indexed":false,"internalType":"uint256"}],"anonymous":false},{"type":"error","name":"OwnableInvalidOwner","inputs":[{"name":"owner","type":"address","internalType":"address"}]},{"type":"error","name":"OwnableUnauthorizedAccount","inputs":[{"name":"account","type":"address","internalType":"address"}]}],"bytecode":{"object":"0x60a0346100df57601f61056a38819003918201601f19168301916001600160401b038311848410176100e35780849260409485528339810103126100df576020815191015160ff811681036100df5733156100cc575f8054336001600160a01b0319821681178355604051949290916001600160a01b0316907f8be0079c531659141344cd1fd0a4f28419497f9722a3daafe3b4186f6b6457e09080a36001556080526001808060501b031960025416176002554260035561047290816100f88239608051816103f20152f35b631e4fbdf760e01b5f525f60045260245ffd5b5f80fd5b634e487b7160e01b5f52604160045260245ffdfe6080806040526004361015610012575f80fd5b5f3560e01c908163313ce567146103db5750806354fd4d50146103c0578063715018a6146103695780637284e416146102cf5780638da5cb5b146102a85780639a6fc8f5146101f6578063d4c19bda14610153578063f2fde38b146100ca5763feaf968c1461007f575f80fd5b346100c6575f3660031901126100c657600254600154600354604080516001600160501b03909416808552602085019390935283018190526060830152608082015260a090f35b5f80fd5b346100c65760203660031901126100c6576004356001600160a01b038116908190036100c6576100f8610416565b8015610140575f80546001600160a01b03198116831782556001600160a01b0316907f8be0079c531659141344cd1fd0a4f28419497f9722a3daafe3b4186f6b6457e09080a3005b631e4fbdf760e01b5f525f60045260245ffd5b346100c65760203660031901126100c65760043561016f610416565b80600155600254906001600160501b038216906001600160501b0382146101e2577fdb6fb3cf4cc5fb760bcd63b958a53b2396776dff32c063188e864296541e76bd926001600160501b0360016040940116906001600160501b03191617600255426003558151908152426020820152a1005b634e487b7160e01b5f52601160045260245ffd5b346100c65760203660031901126100c6576004356001600160501b0381168091036100c6576001600160501b036002541680910361026357600154600354604080516001600160501b0394909416808552602085019390935283018190526060830152608082015260a090f35b60405162461bcd60e51b815260206004820152601e60248201527f4d6f636b5072696365466565643a20496e76616c696420726f756e64496400006044820152606490fd5b346100c6575f3660031901126100c6575f546040516001600160a01b039091168152602090f35b346100c6575f3660031901126100c6576040516040810181811067ffffffffffffffff8211176103555760405260198152604060208201917f4d6f636b20436861696e6c696e6b20507269636520466565640000000000000083528151928391602083525180918160208501528484015e5f828201840152601f01601f19168101030190f35b634e487b7160e01b5f52604160045260245ffd5b346100c6575f3660031901126100c657610381610416565b5f80546001600160a01b0319811682556001600160a01b03167f8be0079c531659141344cd1fd0a4f28419497f9722a3daafe3b4186f6b6457e08280a3005b346100c6575f3660031901126100c657602060405160018152f35b346100c6575f3660031901126100c65760209060ff7f0000000000000000000000000000000000000000000000000000000000000000168152f35b5f546001600160a01b0316330361042957565b63118cdaa760e01b5f523360045260245ffdfea26469706673582212206ee1c7bb1a2ef275da330105c7a5986c953612591c45832942a2417d74a9e7ca64736f6c634300081a0033","linkReferences":{}},"methodIdentifiers":{"decimals()":"313ce567","description()":"7284e416","getRoundData(uint80)":"9a6fc8f5","latestRoundData()":"feaf968c","owner()":"8da5cb5b","renounceOwnership()":"715018a6","transferOwnership(address)":"f2fde38b","updatePrice(int256)":"d4c19bda","version()":"54fd4d50"},"id":2}