{"abi":[{"type":"constructor","inputs":[{"name":"initialPrice","type":"int256","internalType":"int256"},{"name":"_decimals","type":"uint8","internalType":"uint8"}],"stateMutability":"nonpayable"},{"type":"function","name":"decimals","inputs":[],"outputs":[{"name":"","type":"uint8","internalType":"uint8"}],"stateMutability":"view"},{"type":"function","name":"description","inputs":[],"outputs":[{"name":"","type":"string","internalType":"string"}],"stateMutability":"pure"},{"type":"function","name":"getRoundData","inputs":[{"name":"_roundId","type":"uint80","internalType":"uint80"}],"outputs":[{"name":"","type":"uint80","internalType":"uint80"},{"name":"","type":"int256","internalType":"int256"},{"name":"","type":"uint256","internalType":"uint256"},{"name":"","type":"uint256","internalType":"uint256"},{"name":"","type":"uint80","internalType":"uint80"}],"stateMutability":"view"},{"type":"function","name":"latestRoundData","inputs":[],"outputs":[{"name":"","type":"uint80","internalType":"uint80"},{"name":"","type":"int256","internalType":"int256"},{"name":"","type":"uint256","internalType":"uint256"},{"name":"","type":"uint256","internalType":"uint256"},{"name":"","type":"uint80","internalType":"uint80"}],"stateMutability":"view"},{"type":"function","name":"owner","inputs":[],"outputs":[{"name":"","type":"address","internalType":"address"}],"stateMutability":"view"},{"type":"function","name":"renounceOwnership","inputs":[],"outputs":[],"stateMutability":"nonpayable"},{"type":"function","name":"transferOwnership","inputs":[{"name":"newOwner","type":"address","internalType":"address"}],"outputs":[],"stateMutability":"nonpayable"},{"type":"function","name":"updatePrice","inputs":[{"name":"newPrice","type":"int256","internalType":"int256"}],"outputs":[],"stateMutability":"nonpayable"},{"type":"function","name":"version","inputs":[],"outputs":[{"name":"","type":"uint256","internalType":"uint256"}],"stateMutability":"pure"},{"type":"event","name":"OwnershipTransferred","inputs":[{"name":"previousOwner","type":"address","indexed":true,"internalType":"address"},{"name":"newOwner","type":"address","indexed":true,"internalType":"address"}],"anonymous":false},{"type":"event","name":"PriceUpdated","inputs":[{"name":"newPrice","type":"int256","indexed":false,"internalType":"int256"},{"name":"timestamp","type":"uint256","indexed":false,"internalType":"uint256"}],"anonymous":false},{"type":"error","name":"OwnableInvalidOwner","inputs":[{"name":"owner","type":"address","internalType":"address"}]},{"type":"error","name":"OwnableUnauthorizedAccount","inputs":[{"name":"account","type":"address","internalType":"address"}]}],"bytecode":{"object":"0x60a060405234801561000f575f80fd5b506040516105e13803806105e183398101604081905261002e916100d3565b338061005357604051631e4fbdf760e01b81525f600482015260240160405180910390fd5b61005c81610084565b50600191825560ff16608052600280546001600160501b031916909117905542600355610106565b5f80546001600160a01b038381166001600160a01b0319831681178455604051919092169283917f8be0079c531659141344cd1fd0a4f28419497f9722a3daafe3b4186f6b6457e09190a35050565b5f80604083850312156100e4575f80fd5b82519150602083015160ff811681146100fb575f80fd5b809150509250929050565b6080516104c461011d5f395f609b01526104c45ff3fe608060405234801561000f575f80fd5b5060043610610090575f3560e01c80638da5cb5b116100635780638da5cb5b146101225780639a6fc8f51461013c578063d4c19bda14610183578063f2fde38b14610196578063feaf968c146101a9575f80fd5b8063313ce5671461009457806354fd4d50146100ca578063715018a6146100d95780637284e416146100e3575b5f80fd5b60405160ff7f00000000000000000000000000000000000000000000000000000000000000001681526020015b60405180910390f35b604051600181526020016100c1565b6100e16101c5565b005b604080518082018252601981527f4d6f636b20436861696e6c696e6b205072696365204665656400000000000000602082015290516100c191906103b9565b5f546040516001600160a01b0390911681526020016100c1565b61014f61014a3660046103ee565b6101d8565b604080516001600160501b03968716815260208101959095528401929092526060830152909116608082015260a0016100c1565b6100e161019136600461041b565b610269565b6100e16101a4366004610432565b610301565b6002546001546003546001600160501b0390921691808361014f565b6101cd61033e565b6101d65f61036a565b565b6002545f9081908190819081906001600160501b038781169116146102445760405162461bcd60e51b815260206004820152601e60248201527f4d6f636b5072696365466565643a20496e76616c696420726f756e644964000060448201526064015b60405180910390fd5b50506002546001546003546001600160501b0390921696909550909350839250859150565b61027161033e565b6001819055600280546001600160501b0316905f61028e83610458565b91906101000a8154816001600160501b0302191690836001600160501b0316021790555050426003819055507fdb6fb3cf4cc5fb760bcd63b958a53b2396776dff32c063188e864296541e76bd816003546040516102f6929190918252602082015260400190565b60405180910390a150565b61030961033e565b6001600160a01b03811661033257604051631e4fbdf760e01b81525f600482015260240161023b565b61033b8161036a565b50565b5f546001600160a01b031633146101d65760405163118cdaa760e01b815233600482015260240161023b565b5f80546001600160a01b038381166001600160a01b0319831681178455604051919092169283917f8be0079c531659141344cd1fd0a4f28419497f9722a3daafe3b4186f6b6457e09190a35050565b602081525f82518060208401528060208501604085015e5f604082850101526040601f19601f83011684010191505092915050565b5f602082840312156103fe575f80fd5b81356001600160501b0381168114610414575f80fd5b9392505050565b5f6020828403121561042b575f80fd5b5035919050565b5f60208284031215610442575f80fd5b81356001600160a01b0381168114610414575f80fd5b5f6001600160501b0382166001600160501b03810361048557634e487b7160e01b5f52601160045260245ffd5b6001019291505056fea2646970667358221220d2688cfb96b9125c74ffd970b79fb4a32255861affe84c982f4b554b0df02d5a64736f6c634300081a0033","linkReferences":{}},"methodIdentifiers":{"decimals()":"313ce567","description()":"7284e416","getRoundData(uint80)":"9a6fc8f5","latestRoundData()":"feaf968c","owner()":"8da5cb5b","renounceOwnership()":"715018a6","transferOwnership(address)":"f2fde38b","updatePrice(int256)":"d4c19bda","version()":"54fd4d50"},"id":2}