{"abi":[{"type":"constructor","inputs":[{"name":"_poolManager","type":"address","internalType":"address"}],"stateMutability":"nonpayable"},{"type":"function","name":"poolManager","inputs":[],"outputs":[{"name":"","type":"address","internalType":"contract IPoolManager"}],"stateMutability":"view"},{"type":"function","name":"unlock","inputs":[],"outputs":[],"stateMutability":"nonpayable"},{"type":"function","name":"unlockCallback","inputs":[{"name":"data","type":"bytes","internalType":"bytes"}],"outputs":[{"name":"","type":"bytes","internalType":"bytes"}],"stateMutability":"nonpayable"}],"bytecode":{"object":"0x60a0604052348015600e575f80fd5b5060405161043d38038061043d833981016040819052602b91603b565b6001600160a01b03166080526066565b5f60208284031215604a575f80fd5b81516001600160a01b0381168114605f575f80fd5b9392505050565b6080516103b361008a5f395f8181607b0152818160c2015261019c01526103b35ff3fe608060405234801561000f575f80fd5b506004361061003f575f3560e01c806391dd734614610043578063a69df4b51461006c578063dc4c90d314610076575b5f80fd5b610056610051366004610213565b6100b5565b6040516100639190610281565b60405180910390f35b610074610180565b005b61009d7f000000000000000000000000000000000000000000000000000000000000000081565b6040516001600160a01b039091168152602001610063565b6060336001600160a01b037f000000000000000000000000000000000000000000000000000000000000000016146101435760405162461bcd60e51b815260206004820152602760248201527f4d6f636b556e6c6f636b43616c6c6261636b3a20556e617574686f72697a65646044820152661031b0b63632b960c91b606482015260840160405180910390fd5b82828080601f0160208091040260200160405190810160405280939291908181526020018383808284375f92019190915250929695505050505050565b6040516348c8949160e01b8152602060048201525f60248201527f00000000000000000000000000000000000000000000000000000000000000006001600160a01b0316906348c89491906044015f604051808303815f875af11580156101e9573d5f803e3d5ffd5b505050506040513d5f823e601f3d908101601f1916820160405261021091908101906102ca565b50565b5f8060208385031215610224575f80fd5b823567ffffffffffffffff81111561023a575f80fd5b8301601f8101851361024a575f80fd5b803567ffffffffffffffff811115610260575f80fd5b856020828401011115610271575f80fd5b6020919091019590945092505050565b602081525f82518060208401528060208501604085015e5f604082850101526040601f19601f83011684010191505092915050565b634e487b7160e01b5f52604160045260245ffd5b5f602082840312156102da575f80fd5b815167ffffffffffffffff8111156102f0575f80fd5b8201601f81018413610300575f80fd5b805167ffffffffffffffff81111561031a5761031a6102b6565b604051601f8201601f19908116603f0116810167ffffffffffffffff81118282101715610349576103496102b6565b604052818152828201602001861015610360575f80fd5b8160208401602083015e5f9181016020019190915294935050505056fea26469706673582212208269b9f469ebcf87e1e462ee1e114f0a90e698beed1b7487a5c7c6e6624b6bb064736f6c634300081a0033","linkReferences":{}},"methodIdentifiers":{"poolManager()":"dc4c90d3","unlock()":"a69df4b5","unlockCallback(bytes)":"91dd7346"},"id":4}