{"abi":[{"type":"constructor","inputs":[{"name":"_poolManager","type":"address","internalType":"address"}],"stateMutability":"nonpayable"},{"type":"function","name":"poolManager","inputs":[],"outputs":[{"name":"","type":"address","internalType":"contract IPoolManager"}],"stateMutability":"view"},{"type":"function","name":"unlock","inputs":[],"outputs":[],"stateMutability":"nonpayable"},{"type":"function","name":"unlockCallback","inputs":[{"name":"data","type":"bytes","internalType":"bytes"}],"outputs":[{"name":"","type":"bytes","internalType":"bytes"}],"stateMutability":"nonpayable"}],"bytecode":{"object":"0x60a034607457601f6103ab38819003918201601f19168301916001600160401b03831184841017607857808492602094604052833981010312607457516001600160a01b0381169081900360745760805260405161031e908161008d823960805181818160520152818160b801526101bd0152f35b5f80fd5b634e487b7160e01b5f52604160045260245ffdfe6080806040526004361015610012575f80fd5b5f3560e01c90816391dd73461461016b57508063a69df4b5146100855763dc4c90d31461003d575f80fd5b34610081575f366003190112610081576040517f00000000000000000000000000000000000000000000000000000000000000006001600160a01b03168152602090f35b5f80fd5b34610081575f366003190112610081576040516348c8949160e01b8152602060048201525f6024820181905281604481837f00000000000000000000000000000000000000000000000000000000000000006001600160a01b03165af18015610160576100ee57005b3d805f833e6100fd8183610296565b8101906020818303126100815780519067ffffffffffffffff8211610081570181601f82011215610081578051610133816102cc565b926101416040519485610296565b81845260208284010111610081575f928160208094018483015e010152005b6040513d5f823e3d90fd5b34610081576020366003190112610081576004359067ffffffffffffffff821161008157366023830112156100815781600401359067ffffffffffffffff8211610081573660248385010111610081577f00000000000000000000000000000000000000000000000000000000000000006001600160a01b031633036102445750805f60206101fb6040946102cc565b9261020885519485610296565b80845280602483860197018737830101528151928391602083525180918160208501528484015e5f828201840152601f01601f19168101030190f35b62461bcd60e51b815260206004820152602760248201527f4d6f636b556e6c6f636b43616c6c6261636b3a20556e617574686f72697a65646044820152661031b0b63632b960c91b6064820152608490fd5b90601f8019910116810190811067ffffffffffffffff8211176102b857604052565b634e487b7160e01b5f52604160045260245ffd5b67ffffffffffffffff81116102b857601f01601f19166020019056fea26469706673582212207481ea02c409b25df9107f1fe39f6d99a14f188ea87849c670554b3ae8f8563b64736f6c634300081a0033","linkReferences":{}},"methodIdentifiers":{"poolManager()":"dc4c90d3","unlock()":"a69df4b5","unlockCallback(bytes)":"91dd7346"},"id":4}