{
  "_format": "hh-sol-artifact-1",
  "contractName": "DEXRouter",
  "sourceName": "contracts/DEXRouter.sol",
  "abi": [
    {
      "inputs": [
        {
          "internalType": "address",
          "name": "_poolManager",
          "type": "address"
        },
        {
          "internalType": "address",
          "name": "_WETH",
          "type": "address"
        }
      ],
      "stateMutability": "nonpayable",
      "type": "constructor"
    },
    {
      "anonymous": false,
      "inputs": [
        {
          "indexed": true,
          "internalType": "address",
          "name": "provider",
          "type": "address"
        },
        {
          "indexed": false,
          "internalType": "address",
          "name": "tokenA",
          "type": "address"
        },
        {
          "indexed": false,
          "internalType": "address",
          "name": "tokenB",
          "type": "address"
        },
        {
          "indexed": false,
          "internalType": "uint256",
          "name": "liquidity",
          "type": "uint256"
        }
      ],
      "name": "LiquidityAdded",
      "type": "event"
    },
    {
      "anonymous": false,
      "inputs": [
        {
          "indexed": true,
          "internalType": "address",
          "name": "provider",
          "type": "address"
        },
        {
          "indexed": false,
          "internalType": "address",
          "name": "tokenA",
          "type": "address"
        },
        {
          "indexed": false,
          "internalType": "address",
          "name": "tokenB",
          "type": "address"
        },
        {
          "indexed": false,
          "internalType": "uint256",
          "name": "liquidity",
          "type": "uint256"
        }
      ],
      "name": "LiquidityRemoved",
      "type": "event"
    },
    {
      "anonymous": false,
      "inputs": [
        {
          "indexed": true,
          "internalType": "address",
          "name": "trader",
          "type": "address"
        },
        {
          "indexed": false,
          "internalType": "address",
          "name": "tokenIn",
          "type": "address"
        },
        {
          "indexed": false,
          "internalType": "address",
          "name": "tokenOut",
          "type": "address"
        },
        {
          "indexed": false,
          "internalType": "uint256",
          "name": "amountIn",
          "type": "uint256"
        },
        {
          "indexed": false,
          "internalType": "uint256",
          "name": "amountOut",
          "type": "uint256"
        }
      ],
      "name": "SwapExecuted",
      "type": "event"
    },
    {
      "inputs": [],
      "name": "WETH",
      "outputs": [
        {
          "internalType": "address",
          "name": "",
          "type": "address"
        }
      ],
      "stateMutability": "view",
      "type": "function"
    },
    {
      "inputs": [
        {
          "internalType": "address",
          "name": "tokenA",
          "type": "address"
        },
        {
          "internalType": "address",
          "name": "tokenB",
          "type": "address"
        },
        {
          "internalType": "uint256",
          "name": "amountA",
          "type": "uint256"
        },
        {
          "internalType": "uint256",
          "name": "amountB",
          "type": "uint256"
        }
      ],
      "name": "addLiquidity",
      "outputs": [],
      "stateMutability": "nonpayable",
      "type": "function"
    },
    {
      "inputs": [],
      "name": "poolManager",
      "outputs": [
        {
          "internalType": "contract IPoolManager",
          "name": "",
          "type": "address"
        }
      ],
      "stateMutability": "view",
      "type": "function"
    },
    {
      "inputs": [
        {
          "internalType": "address",
          "name": "tokenA",
          "type": "address"
        },
        {
          "internalType": "address",
          "name": "tokenB",
          "type": "address"
        },
        {
          "internalType": "uint256",
          "name": "liquidity",
          "type": "uint256"
        }
      ],
      "name": "removeLiquidity",
      "outputs": [],
      "stateMutability": "nonpayable",
      "type": "function"
    },
    {
      "inputs": [
        {
          "internalType": "address",
          "name": "tokenIn",
          "type": "address"
        },
        {
          "internalType": "address",
          "name": "tokenOut",
          "type": "address"
        },
        {
          "internalType": "uint256",
          "name": "amountIn",
          "type": "uint256"
        },
        {
          "internalType": "uint256",
          "name": "amountOutMin",
          "type": "uint256"
        }
      ],
      "name": "swapExactInputSingle",
      "outputs": [
        {
          "internalType": "int128",
          "name": "amountOut",
          "type": "int128"
        }
      ],
      "stateMutability": "nonpayable",
      "type": "function"
    }
  ],
  "bytecode": "0x60c06040523480156200001157600080fd5b506040516200193338038062001933833981810160405281019062000037919062000111565b8173ffffffffffffffffffffffffffffffffffffffff1660808173ffffffffffffffffffffffffffffffffffffffff16815250508073ffffffffffffffffffffffffffffffffffffffff1660a08173ffffffffffffffffffffffffffffffffffffffff1681525050505062000158565b600080fd5b600073ffffffffffffffffffffffffffffffffffffffff82169050919050565b6000620000d982620000ac565b9050919050565b620000eb81620000cc565b8114620000f757600080fd5b50565b6000815190506200010b81620000e0565b92915050565b600080604083850312156200012b576200012a620000a7565b5b60006200013b85828601620000fa565b92505060206200014e85828601620000fa565b9150509250929050565b60805160a051611776620001bd60003960006101020152600081816102070152818161036e01528181610656015281816106f50152818161081e015281816108f70152818161099601528181610baf01528181610c4e0152610d3b01526117766000f3fe608060405234801561001057600080fd5b50600436106100575760003560e01c8063ad5c46481461005c578063ba25d3e91461007a578063cf6c62ea146100aa578063d752fab2146100c6578063dc4c90d3146100e2575b600080fd5b610064610100565b6040516100719190610db8565b60405180910390f35b610094600480360381019061008f9190610e3a565b610124565b6040516100a19190610ebd565b60405180910390f35b6100c460048036038101906100bf9190610e3a565b6104e7565b005b6100e060048036038101906100db9190610ed8565b610a8d565b005b6100ea610d39565b6040516100f79190610f8a565b60405180910390f35b7f000000000000000000000000000000000000000000000000000000000000000081565b6000808311610168576040517f08c379a000000000000000000000000000000000000000000000000000000000815260040161015f90611002565b60405180910390fd5b8473ffffffffffffffffffffffffffffffffffffffff166323b872dd3330866040518463ffffffff1660e01b81526004016101a593929190611031565b6020604051808303816000875af11580156101c4573d6000803e3d6000fd5b505050506040513d601f19601f820116820180604052508101906101e891906110a0565b508473ffffffffffffffffffffffffffffffffffffffff1663095ea7b37f0000000000000000000000000000000000000000000000000000000000000000856040518363ffffffff1660e01b81526004016102449291906110cd565b6020604051808303816000875af1158015610263573d6000803e3d6000fd5b505050506040513d601f19601f8201168201806040525081019061028791906110a0565b5060006040518060a001604052808773ffffffffffffffffffffffffffffffffffffffff1681526020018673ffffffffffffffffffffffffffffffffffffffff168152602001610bb862ffffff168152602001603c60020b8152602001600073ffffffffffffffffffffffffffffffffffffffff168152509050600060405180606001604052808773ffffffffffffffffffffffffffffffffffffffff168973ffffffffffffffffffffffffffffffffffffffff16101515815260200186600f0b8152602001600073ffffffffffffffffffffffffffffffffffffffff16815250905060007f000000000000000000000000000000000000000000000000000000000000000073ffffffffffffffffffffffffffffffffffffffff1663f3cd914c84846040518363ffffffff1660e01b81526004016103c792919061128a565b6020604051808303816000875af11580156103e6573d6000803e3d6000fd5b505050506040513d601f19601f8201168201806040525081019061040a91906112f4565b905081600001516104235761041e81610d5d565b61042d565b61042c81610d6a565b5b9350600084600f0b1215801561044657508484600f0b10155b610485576040517f08c379a000000000000000000000000000000000000000000000000000000000815260040161047c9061136d565b60405180910390fd5b3373ffffffffffffffffffffffffffffffffffffffff167f764f0dc063c06f32d89a3f3af80c0db4be8a090901f589a478b447e0a51f09f189898988600f0b6040516104d4949392919061138d565b60405180910390a2505050949350505050565b6000821180156104f75750600081115b610536576040517f08c379a000000000000000000000000000000000000000000000000000000000815260040161052d9061141e565b60405180910390fd5b8373ffffffffffffffffffffffffffffffffffffffff166323b872dd3330856040518463ffffffff1660e01b815260040161057393929190611031565b6020604051808303816000875af1158015610592573d6000803e3d6000fd5b505050506040513d601f19601f820116820180604052508101906105b691906110a0565b508273ffffffffffffffffffffffffffffffffffffffff166323b872dd3330846040518463ffffffff1660e01b81526004016105f493929190611031565b6020604051808303816000875af1158015610613573d6000803e3d6000fd5b505050506040513d601f19601f8201168201806040525081019061063791906110a0565b508373ffffffffffffffffffffffffffffffffffffffff1663095ea7b37f0000000000000000000000000000000000000000000000000000000000000000846040518363ffffffff1660e01b81526004016106939291906110cd565b6020604051808303816000875af11580156106b2573d6000803e3d6000fd5b505050506040513d601f19601f820116820180604052508101906106d691906110a0565b508273ffffffffffffffffffffffffffffffffffffffff1663095ea7b37f0000000000000000000000000000000000000000000000000000000000000000836040518363ffffffff1660e01b81526004016107329291906110cd565b6020604051808303816000875af1158015610751573d6000803e3d6000fd5b505050506040513d601f19601f8201168201806040525081019061077591906110a0565b5060006040518060a001604052808673ffffffffffffffffffffffffffffffffffffffff1681526020018573ffffffffffffffffffffffffffffffffffffffff168152602001610bb862ffffff168152602001603c60020b8152602001600073ffffffffffffffffffffffffffffffffffffffff16815250905060007ffffffffffffffffffffffffffffffffffffffffffffffffffffffffffff2764c90506000620d89b490507f000000000000000000000000000000000000000000000000000000000000000073ffffffffffffffffffffffffffffffffffffffff16636276cbbe8460006040518363ffffffff1660e01b8152600401610878929190611479565b6020604051808303816000875af1158015610897573d6000803e3d6000fd5b505050506040513d601f19601f820116820180604052508101906108bb91906114ce565b50600060405180608001604052808460020b81526020018360020b815260200186886108e7919061152a565b81526020016000801b81525090507f000000000000000000000000000000000000000000000000000000000000000073ffffffffffffffffffffffffffffffffffffffff16635a6bcfda85836040518363ffffffff1660e01b81526004016109509291906115cc565b60408051808303816000875af115801561096e573d6000803e3d6000fd5b505050506040513d601f19601f82011682018060405250810190610992919061160a565b50507f000000000000000000000000000000000000000000000000000000000000000073ffffffffffffffffffffffffffffffffffffffff166311da60b46040518163ffffffff1660e01b81526004016020604051808303816000875af1158015610a01573d6000803e3d6000fd5b505050506040513d601f19601f82011682018060405250810190610a25919061165f565b503373ffffffffffffffffffffffffffffffffffffffff167f2db8fc28326a114fe00f000205e13b79bbdeaeae6568b34ccf9fe0991da2285e8989888a610a6c919061152a565b604051610a7b93929190611031565b60405180910390a25050505050505050565b60008111610ad0576040517f08c379a0000000000000000000000000000000000000000000000000000000008152600401610ac7906116d8565b60405180910390fd5b60006040518060a001604052808573ffffffffffffffffffffffffffffffffffffffff1681526020018473ffffffffffffffffffffffffffffffffffffffff168152602001610bb862ffffff168152602001603c60020b8152602001600073ffffffffffffffffffffffffffffffffffffffff16815250905060007ffffffffffffffffffffffffffffffffffffffffffffffffffffffffffff2764c90506000620d89b49050600060405180608001604052808460020b81526020018360020b815260200186610b9f906116f8565b81526020016000801b81525090507f000000000000000000000000000000000000000000000000000000000000000073ffffffffffffffffffffffffffffffffffffffff16635a6bcfda85836040518363ffffffff1660e01b8152600401610c089291906115cc565b60408051808303816000875af1158015610c26573d6000803e3d6000fd5b505050506040513d601f19601f82011682018060405250810190610c4a919061160a565b50507f000000000000000000000000000000000000000000000000000000000000000073ffffffffffffffffffffffffffffffffffffffff166311da60b46040518163ffffffff1660e01b81526004016020604051808303816000875af1158015610cb9573d6000803e3d6000fd5b505050506040513d601f19601f82011682018060405250810190610cdd919061165f565b503373ffffffffffffffffffffffffffffffffffffffff167f94f1f3125c0ce3e87e73be7798f37f42710fa4c304b51ee82698965e200afa73888888604051610d2893929190611031565b60405180910390a250505050505050565b7f000000000000000000000000000000000000000000000000000000000000000081565b60008160801d9050919050565b600081600f0b9050919050565b600073ffffffffffffffffffffffffffffffffffffffff82169050919050565b6000610da282610d77565b9050919050565b610db281610d97565b82525050565b6000602082019050610dcd6000830184610da9565b92915050565b600080fd5b610de181610d97565b8114610dec57600080fd5b50565b600081359050610dfe81610dd8565b92915050565b6000819050919050565b610e1781610e04565b8114610e2257600080fd5b50565b600081359050610e3481610e0e565b92915050565b60008060008060808587031215610e5457610e53610dd3565b5b6000610e6287828801610def565b9450506020610e7387828801610def565b9350506040610e8487828801610e25565b9250506060610e9587828801610e25565b91505092959194509250565b600081600f0b9050919050565b610eb781610ea1565b82525050565b6000602082019050610ed26000830184610eae565b92915050565b600080600060608486031215610ef157610ef0610dd3565b5b6000610eff86828701610def565b9350506020610f1086828701610def565b9250506040610f2186828701610e25565b9150509250925092565b6000819050919050565b6000610f50610f4b610f4684610d77565b610f2b565b610d77565b9050919050565b6000610f6282610f35565b9050919050565b6000610f7482610f57565b9050919050565b610f8481610f69565b82525050565b6000602082019050610f9f6000830184610f7b565b92915050565b600082825260208201905092915050565b7f496e76616c696420616d6f756e74000000000000000000000000000000000000600082015250565b6000610fec600e83610fa5565b9150610ff782610fb6565b602082019050919050565b6000602082019050818103600083015261101b81610fdf565b9050919050565b61102b81610e04565b82525050565b60006060820190506110466000830186610da9565b6110536020830185610da9565b6110606040830184611022565b949350505050565b60008115159050919050565b61107d81611068565b811461108857600080fd5b50565b60008151905061109a81611074565b92915050565b6000602082840312156110b6576110b5610dd3565b5b60006110c48482850161108b565b91505092915050565b60006040820190506110e26000830185610da9565b6110ef6020830184611022565b9392505050565b600061110182610f57565b9050919050565b611111816110f6565b82525050565b600062ffffff82169050919050565b61112f81611117565b82525050565b60008160020b9050919050565b61114b81611135565b82525050565b600061115c82610f57565b9050919050565b61116c81611151565b82525050565b60a0820160008201516111886000850182611108565b50602082015161119b6020850182611108565b5060408201516111ae6040850182611126565b5060608201516111c16060850182611142565b5060808201516111d46080850182611163565b50505050565b6111e381611068565b82525050565b6000819050919050565b6111fc816111e9565b82525050565b61120b81610d77565b82525050565b60608201600082015161122760008501826111da565b50602082015161123a60208501826111f3565b50604082015161124d6040850182611202565b50505050565b600082825260208201905092915050565b50565b6000611274600083611253565b915061127f82611264565b600082019050919050565b6000610120820190506112a06000830185611172565b6112ad60a0830184611211565b8181036101008301526112bf81611267565b90509392505050565b6112d1816111e9565b81146112dc57600080fd5b50565b6000815190506112ee816112c8565b92915050565b60006020828403121561130a57611309610dd3565b5b6000611318848285016112df565b91505092915050565b7f496e73756666696369656e74206f757470757420616d6f756e74000000000000600082015250565b6000611357601a83610fa5565b915061136282611321565b602082019050919050565b600060208201905081810360008301526113868161134a565b9050919050565b60006080820190506113a26000830187610da9565b6113af6020830186610da9565b6113bc6040830185611022565b6113c96060830184611022565b95945050505050565b7f416d6f756e7473206d7573742062652067726561746572207468616e20300000600082015250565b6000611408601e83610fa5565b9150611413826113d2565b602082019050919050565b60006020820190508181036000830152611437816113fb565b9050919050565b6000819050919050565b600061146361145e6114598461143e565b610f2b565b610d77565b9050919050565b61147381611448565b82525050565b600060c08201905061148e6000830185611172565b61149b60a083018461146a565b9392505050565b6114ab81611135565b81146114b657600080fd5b50565b6000815190506114c8816114a2565b92915050565b6000602082840312156114e4576114e3610dd3565b5b60006114f2848285016114b9565b91505092915050565b7f4e487b7100000000000000000000000000000000000000000000000000000000600052601160045260246000fd5b600061153582610e04565b915061154083610e04565b9250828201905080821115611558576115576114fb565b5b92915050565b6000819050919050565b6115718161155e565b82525050565b60808201600082015161158d6000850182611142565b5060208201516115a06020850182611142565b5060408201516115b360408501826111f3565b5060608201516115c66060850182611568565b50505050565b6000610140820190506115e26000830185611172565b6115ef60a0830184611577565b81810361012083015261160181611267565b90509392505050565b6000806040838503121561162157611620610dd3565b5b600061162f858286016112df565b9250506020611640858286016112df565b9150509250929050565b60008151905061165981610e0e565b92915050565b60006020828403121561167557611674610dd3565b5b60006116838482850161164a565b91505092915050565b7f496e76616c6964206c697175696469747920616d6f756e740000000000000000600082015250565b60006116c2601883610fa5565b91506116cd8261168c565b602082019050919050565b600060208201905081810360008301526116f1816116b5565b9050919050565b6000611703826111e9565b91507f80000000000000000000000000000000000000000000000000000000000000008203611735576117346114fb565b5b81600003905091905056fea264697066735822122007614ca8045d9b3193fbaabc5e0f3f94cb74fcf226b42743dc8bf8b4044bb3b364736f6c63430008180033",
  "linkReferences": {},
  "deployedLinkReferences": {}
}