{
  "_format": "hh-sol-artifact-1",
  "contractName": "Staking",
  "sourceName": "contracts/Staking.sol",
  "abi": [
    {
      "inputs": [
        {
          "internalType": "address",
          "name": "_stakingToken",
          "type": "address"
        },
        {
          "internalType": "address",
          "name": "_rewardToken",
          "type": "address"
        }
      ],
      "stateMutability": "nonpayable",
      "type": "constructor"
    },
    {
      "inputs": [],
      "name": "EnforcedPause",
      "type": "error"
    },
    {
      "inputs": [],
      "name": "ExpectedPause",
      "type": "error"
    },
    {
      "inputs": [
        {
          "internalType": "address",
          "name": "owner",
          "type": "address"
        }
      ],
      "name": "OwnableInvalidOwner",
      "type": "error"
    },
    {
      "inputs": [
        {
          "internalType": "address",
          "name": "account",
          "type": "address"
        }
      ],
      "name": "OwnableUnauthorizedAccount",
      "type": "error"
    },
    {
      "inputs": [],
      "name": "ReentrancyGuardReentrantCall",
      "type": "error"
    },
    {
      "anonymous": false,
      "inputs": [
        {
          "indexed": true,
          "internalType": "address",
          "name": "user",
          "type": "address"
        },
        {
          "indexed": false,
          "internalType": "uint256",
          "name": "reward",
          "type": "uint256"
        },
        {
          "indexed": false,
          "internalType": "uint256",
          "name": "timestamp",
          "type": "uint256"
        }
      ],
      "name": "Compounded",
      "type": "event"
    },
    {
      "anonymous": false,
      "inputs": [
        {
          "indexed": true,
          "internalType": "address",
          "name": "previousOwner",
          "type": "address"
        },
        {
          "indexed": true,
          "internalType": "address",
          "name": "newOwner",
          "type": "address"
        }
      ],
      "name": "OwnershipTransferred",
      "type": "event"
    },
    {
      "anonymous": false,
      "inputs": [
        {
          "indexed": false,
          "internalType": "address",
          "name": "account",
          "type": "address"
        }
      ],
      "name": "Paused",
      "type": "event"
    },
    {
      "anonymous": false,
      "inputs": [
        {
          "indexed": false,
          "internalType": "uint256",
          "name": "rewardAmount",
          "type": "uint256"
        }
      ],
      "name": "RewardAdded",
      "type": "event"
    },
    {
      "anonymous": false,
      "inputs": [
        {
          "indexed": true,
          "internalType": "address",
          "name": "user",
          "type": "address"
        },
        {
          "indexed": false,
          "internalType": "uint256",
          "name": "reward",
          "type": "uint256"
        },
        {
          "indexed": false,
          "internalType": "uint256",
          "name": "timestamp",
          "type": "uint256"
        }
      ],
      "name": "RewardPaid",
      "type": "event"
    },
    {
      "anonymous": false,
      "inputs": [
        {
          "indexed": true,
          "internalType": "address",
          "name": "user",
          "type": "address"
        },
        {
          "indexed": false,
          "internalType": "uint256",
          "name": "amount",
          "type": "uint256"
        },
        {
          "indexed": false,
          "internalType": "uint256",
          "name": "timestamp",
          "type": "uint256"
        }
      ],
      "name": "Staked",
      "type": "event"
    },
    {
      "anonymous": false,
      "inputs": [
        {
          "indexed": false,
          "internalType": "address",
          "name": "account",
          "type": "address"
        }
      ],
      "name": "Unpaused",
      "type": "event"
    },
    {
      "anonymous": false,
      "inputs": [
        {
          "indexed": true,
          "internalType": "address",
          "name": "user",
          "type": "address"
        },
        {
          "indexed": false,
          "internalType": "uint256",
          "name": "amount",
          "type": "uint256"
        },
        {
          "indexed": false,
          "internalType": "uint256",
          "name": "timestamp",
          "type": "uint256"
        }
      ],
      "name": "Withdrawn",
      "type": "event"
    },
    {
      "inputs": [
        {
          "internalType": "address",
          "name": "",
          "type": "address"
        }
      ],
      "name": "balances",
      "outputs": [
        {
          "internalType": "uint256",
          "name": "",
          "type": "uint256"
        }
      ],
      "stateMutability": "view",
      "type": "function"
    },
    {
      "inputs": [],
      "name": "compoundRewards",
      "outputs": [],
      "stateMutability": "nonpayable",
      "type": "function"
    },
    {
      "inputs": [
        {
          "internalType": "address",
          "name": "account",
          "type": "address"
        }
      ],
      "name": "earned",
      "outputs": [
        {
          "internalType": "uint256",
          "name": "",
          "type": "uint256"
        }
      ],
      "stateMutability": "view",
      "type": "function"
    },
    {
      "inputs": [],
      "name": "getReward",
      "outputs": [],
      "stateMutability": "nonpayable",
      "type": "function"
    },
    {
      "inputs": [],
      "name": "lastUpdateBlock",
      "outputs": [
        {
          "internalType": "uint256",
          "name": "",
          "type": "uint256"
        }
      ],
      "stateMutability": "view",
      "type": "function"
    },
    {
      "inputs": [
        {
          "internalType": "uint256",
          "name": "rewardAmount",
          "type": "uint256"
        }
      ],
      "name": "notifyRewardAmount",
      "outputs": [],
      "stateMutability": "nonpayable",
      "type": "function"
    },
    {
      "inputs": [],
      "name": "owner",
      "outputs": [
        {
          "internalType": "address",
          "name": "",
          "type": "address"
        }
      ],
      "stateMutability": "view",
      "type": "function"
    },
    {
      "inputs": [],
      "name": "pause",
      "outputs": [],
      "stateMutability": "nonpayable",
      "type": "function"
    },
    {
      "inputs": [],
      "name": "paused",
      "outputs": [
        {
          "internalType": "bool",
          "name": "",
          "type": "bool"
        }
      ],
      "stateMutability": "view",
      "type": "function"
    },
    {
      "inputs": [],
      "name": "renounceOwnership",
      "outputs": [],
      "stateMutability": "nonpayable",
      "type": "function"
    },
    {
      "inputs": [],
      "name": "rewardPerToken",
      "outputs": [
        {
          "internalType": "uint256",
          "name": "",
          "type": "uint256"
        }
      ],
      "stateMutability": "view",
      "type": "function"
    },
    {
      "inputs": [],
      "name": "rewardPerTokenStored",
      "outputs": [
        {
          "internalType": "uint256",
          "name": "",
          "type": "uint256"
        }
      ],
      "stateMutability": "view",
      "type": "function"
    },
    {
      "inputs": [],
      "name": "rewardRate",
      "outputs": [
        {
          "internalType": "uint256",
          "name": "",
          "type": "uint256"
        }
      ],
      "stateMutability": "view",
      "type": "function"
    },
    {
      "inputs": [],
      "name": "rewardToken",
      "outputs": [
        {
          "internalType": "contract IERC20",
          "name": "",
          "type": "address"
        }
      ],
      "stateMutability": "view",
      "type": "function"
    },
    {
      "inputs": [
        {
          "internalType": "address",
          "name": "",
          "type": "address"
        }
      ],
      "name": "rewards",
      "outputs": [
        {
          "internalType": "uint256",
          "name": "",
          "type": "uint256"
        }
      ],
      "stateMutability": "view",
      "type": "function"
    },
    {
      "inputs": [
        {
          "internalType": "uint256",
          "name": "newRate",
          "type": "uint256"
        }
      ],
      "name": "setRewardRate",
      "outputs": [],
      "stateMutability": "nonpayable",
      "type": "function"
    },
    {
      "inputs": [
        {
          "internalType": "uint256",
          "name": "amount",
          "type": "uint256"
        }
      ],
      "name": "stake",
      "outputs": [],
      "stateMutability": "nonpayable",
      "type": "function"
    },
    {
      "inputs": [],
      "name": "stakingToken",
      "outputs": [
        {
          "internalType": "contract IERC20",
          "name": "",
          "type": "address"
        }
      ],
      "stateMutability": "view",
      "type": "function"
    },
    {
      "inputs": [],
      "name": "totalSupply",
      "outputs": [
        {
          "internalType": "uint256",
          "name": "",
          "type": "uint256"
        }
      ],
      "stateMutability": "view",
      "type": "function"
    },
    {
      "inputs": [
        {
          "internalType": "address",
          "name": "newOwner",
          "type": "address"
        }
      ],
      "name": "transferOwnership",
      "outputs": [],
      "stateMutability": "nonpayable",
      "type": "function"
    },
    {
      "inputs": [],
      "name": "unpause",
      "outputs": [],
      "stateMutability": "nonpayable",
      "type": "function"
    },
    {
      "inputs": [
        {
          "internalType": "address",
          "name": "",
          "type": "address"
        }
      ],
      "name": "userRewardPerTokenPaid",
      "outputs": [
        {
          "internalType": "uint256",
          "name": "",
          "type": "uint256"
        }
      ],
      "stateMutability": "view",
      "type": "function"
    },
    {
      "inputs": [
        {
          "internalType": "uint256",
          "name": "amount",
          "type": "uint256"
        }
      ],
      "name": "withdraw",
      "outputs": [],
      "stateMutability": "nonpayable",
      "type": "function"
    }
  ],
  "bytecode": "0x60806040526103e86004553480156200001757600080fd5b50604051620023f6380380620023f683398181016040528101906200003d91906200029f565b33600073ffffffffffffffffffffffffffffffffffffffff168173ffffffffffffffffffffffffffffffffffffffff1603620000b35760006040517f1e4fbdf7000000000000000000000000000000000000000000000000000000008152600401620000aa9190620002f7565b60405180910390fd5b620000c4816200017160201b60201c565b50600180819055506000600260006101000a81548160ff02191690831515021790555081600260016101000a81548173ffffffffffffffffffffffffffffffffffffffff021916908373ffffffffffffffffffffffffffffffffffffffff16021790555080600360006101000a81548173ffffffffffffffffffffffffffffffffffffffff021916908373ffffffffffffffffffffffffffffffffffffffff160217905550505062000314565b60008060009054906101000a900473ffffffffffffffffffffffffffffffffffffffff169050816000806101000a81548173ffffffffffffffffffffffffffffffffffffffff021916908373ffffffffffffffffffffffffffffffffffffffff1602179055508173ffffffffffffffffffffffffffffffffffffffff168173ffffffffffffffffffffffffffffffffffffffff167f8be0079c531659141344cd1fd0a4f28419497f9722a3daafe3b4186f6b6457e060405160405180910390a35050565b600080fd5b600073ffffffffffffffffffffffffffffffffffffffff82169050919050565b600062000267826200023a565b9050919050565b62000279816200025a565b81146200028557600080fd5b50565b60008151905062000299816200026e565b92915050565b60008060408385031215620002b957620002b862000235565b5b6000620002c98582860162000288565b9250506020620002dc8582860162000288565b9150509250929050565b620002f1816200025a565b82525050565b60006020820190506200030e6000830184620002e6565b92915050565b6120d280620003246000396000f3fe608060405234801561001057600080fd5b506004361061014c5760003560e01c80637b0a47ee116100c3578063a694fc3a1161007c578063a694fc3a14610341578063c00c9f7f1461035d578063cd3daf9d14610367578063df136d6514610385578063f2fde38b146103a3578063f7c618c1146103bf5761014c565b80637b0a47ee146102915780638456cb59146102af5780638b876347146102b95780638da5cb5b146102e95780639e447fc614610307578063a218141b146103235761014c565b80633c6b16ab116101155780633c6b16ab1461021b5780633d18b912146102375780633f4ba83a146102415780635c975abb1461024b578063715018a61461026957806372f702f3146102735761014c565b80628cc262146101515780630700037d1461018157806318160ddd146101b157806327e235e3146101cf5780632e1a7d4d146101ff575b600080fd5b61016b6004803603810190610166919061183c565b6103dd565b6040516101789190611882565b60405180910390f35b61019b6004803603810190610196919061183c565b6104df565b6040516101a89190611882565b60405180910390f35b6101b96104f7565b6040516101c69190611882565b60405180910390f35b6101e960048036038101906101e4919061183c565b61059a565b6040516101f69190611882565b60405180910390f35b610219600480360381019061021491906118c9565b6105b2565b005b610235600480360381019061023091906118c9565b6108c0565b005b61023f610ad0565b005b610249610d8f565b005b610253610da1565b6040516102609190611911565b60405180910390f35b610271610db8565b005b61027b610dcc565b604051610288919061198b565b60405180910390f35b610299610df2565b6040516102a69190611882565b60405180910390f35b6102b7610df8565b005b6102d360048036038101906102ce919061183c565b610e0a565b6040516102e09190611882565b60405180910390f35b6102f1610e22565b6040516102fe91906119b5565b60405180910390f35b610321600480360381019061031c91906118c9565b610e4b565b005b61032b610f07565b6040516103389190611882565b60405180910390f35b61035b600480360381019061035691906118c9565b610f0d565b005b61036561119b565b005b61036f6113d1565b60405161037c9190611882565b60405180910390f35b61038d61143e565b60405161039a9190611882565b60405180910390f35b6103bd60048036038101906103b8919061183c565b611444565b005b6103c76114ca565b6040516103d4919061198b565b60405180910390f35b6000600860008373ffffffffffffffffffffffffffffffffffffffff1673ffffffffffffffffffffffffffffffffffffffff16815260200190815260200160002054670de0b6b3a7640000600760008573ffffffffffffffffffffffffffffffffffffffff1673ffffffffffffffffffffffffffffffffffffffff168152602001908152602001600020546104706113d1565b61047a91906119ff565b600960008673ffffffffffffffffffffffffffffffffffffffff1673ffffffffffffffffffffffffffffffffffffffff168152602001908152602001600020546104c49190611a33565b6104ce9190611aa4565b6104d89190611ad5565b9050919050565b60086020528060005260406000206000915090505481565b6000600260019054906101000a900473ffffffffffffffffffffffffffffffffffffffff1673ffffffffffffffffffffffffffffffffffffffff166370a08231306040518263ffffffff1660e01b815260040161055491906119b5565b602060405180830381865afa158015610571573d6000803e3d6000fd5b505050506040513d601f19601f820116820180604052508101906105959190611b1e565b905090565b60096020528060005260406000206000915090505481565b6105ba6114f0565b6105c2611536565b336105cb6113d1565b600681905550436005819055506105e1816103dd565b600860008373ffffffffffffffffffffffffffffffffffffffff1673ffffffffffffffffffffffffffffffffffffffff16815260200190815260200160002081905550600654600760008373ffffffffffffffffffffffffffffffffffffffff1673ffffffffffffffffffffffffffffffffffffffff16815260200190815260200160002081905550600082116106ad576040517f08c379a00000000000000000000000000000000000000000000000000000000081526004016106a490611ba8565b60405180910390fd5b81600960003373ffffffffffffffffffffffffffffffffffffffff1673ffffffffffffffffffffffffffffffffffffffff16815260200190815260200160002054101561072f576040517f08c379a000000000000000000000000000000000000000000000000000000000815260040161072690611c14565b60405180910390fd5b81600960003373ffffffffffffffffffffffffffffffffffffffff1673ffffffffffffffffffffffffffffffffffffffff168152602001908152602001600020600082825461077e91906119ff565b92505081905550600260019054906101000a900473ffffffffffffffffffffffffffffffffffffffff1673ffffffffffffffffffffffffffffffffffffffff1663a9059cbb33846040518363ffffffff1660e01b81526004016107e2929190611c34565b6020604051808303816000875af1158015610801573d6000803e3d6000fd5b505050506040513d601f19601f820116820180604052508101906108259190611c89565b610864576040517f08c379a000000000000000000000000000000000000000000000000000000000815260040161085b90611d02565b60405180910390fd5b3373ffffffffffffffffffffffffffffffffffffffff167f92ccf450a286a957af52509bc1c9939d1a6a481783e142e41e2499f0bb66ebc683426040516108ac929190611d22565b60405180910390a2506108bd611577565b50565b6108c8611580565b60006108d26113d1565b600681905550436005819055506108e8816103dd565b600860008373ffffffffffffffffffffffffffffffffffffffff1673ffffffffffffffffffffffffffffffffffffffff16815260200190815260200160002081905550600654600760008373ffffffffffffffffffffffffffffffffffffffff1673ffffffffffffffffffffffffffffffffffffffff16815260200190815260200160002081905550600082116109b4576040517f08c379a00000000000000000000000000000000000000000000000000000000081526004016109ab90611dbd565b60405180910390fd5b600360009054906101000a900473ffffffffffffffffffffffffffffffffffffffff1673ffffffffffffffffffffffffffffffffffffffff166323b872dd3330856040518463ffffffff1660e01b8152600401610a1393929190611ddd565b6020604051808303816000875af1158015610a32573d6000803e3d6000fd5b505050506040513d601f19601f82011682018060405250810190610a569190611c89565b610a95576040517f08c379a0000000000000000000000000000000000000000000000000000000008152600401610a8c90611e60565b60405180910390fd5b7fde88a922e0d3b88b24e9623efeb464919c6bf9f66857a65e2bfcf2ce87a9433d82604051610ac49190611882565b60405180910390a15050565b610ad86114f0565b610ae0611536565b33610ae96113d1565b60068190555043600581905550610aff816103dd565b600860008373ffffffffffffffffffffffffffffffffffffffff1673ffffffffffffffffffffffffffffffffffffffff16815260200190815260200160002081905550600654600760008373ffffffffffffffffffffffffffffffffffffffff1673ffffffffffffffffffffffffffffffffffffffff168152602001908152602001600020819055506000600860003373ffffffffffffffffffffffffffffffffffffffff1673ffffffffffffffffffffffffffffffffffffffff16815260200190815260200160002054905060008111610c0f576040517f08c379a0000000000000000000000000000000000000000000000000000000008152600401610c0690611ecc565b60405180910390fd5b6000600860003373ffffffffffffffffffffffffffffffffffffffff1673ffffffffffffffffffffffffffffffffffffffff16815260200190815260200160002081905550600360009054906101000a900473ffffffffffffffffffffffffffffffffffffffff1673ffffffffffffffffffffffffffffffffffffffff1663a9059cbb33836040518363ffffffff1660e01b8152600401610cb1929190611c34565b6020604051808303816000875af1158015610cd0573d6000803e3d6000fd5b505050506040513d601f19601f82011682018060405250810190610cf49190611c89565b610d33576040517f08c379a0000000000000000000000000000000000000000000000000000000008152600401610d2a90611f38565b60405180910390fd5b3373ffffffffffffffffffffffffffffffffffffffff167fd6f2c8500df5b44f11e9e48b91ff9f1b9d81bc496d55570c2b1b75bf65243f518242604051610d7b929190611d22565b60405180910390a25050610d8d611577565b565b610d97611580565b610d9f611607565b565b6000600260009054906101000a900460ff16905090565b610dc0611580565b610dca600061166a565b565b600260019054906101000a900473ffffffffffffffffffffffffffffffffffffffff1681565b60045481565b610e00611580565b610e0861172e565b565b60076020528060005260406000206000915090505481565b60008060009054906101000a900473ffffffffffffffffffffffffffffffffffffffff16905090565b610e53611580565b6000610e5d6113d1565b60068190555043600581905550610e73816103dd565b600860008373ffffffffffffffffffffffffffffffffffffffff1673ffffffffffffffffffffffffffffffffffffffff16815260200190815260200160002081905550600654600760008373ffffffffffffffffffffffffffffffffffffffff1673ffffffffffffffffffffffffffffffffffffffff16815260200190815260200160002081905550816004819055505050565b60055481565b610f156114f0565b610f1d611536565b33610f266113d1565b60068190555043600581905550610f3c816103dd565b600860008373ffffffffffffffffffffffffffffffffffffffff1673ffffffffffffffffffffffffffffffffffffffff16815260200190815260200160002081905550600654600760008373ffffffffffffffffffffffffffffffffffffffff1673ffffffffffffffffffffffffffffffffffffffff1681526020019081526020016000208190555060008211611008576040517f08c379a0000000000000000000000000000000000000000000000000000000008152600401610fff90611fa4565b60405180910390fd5b81600960003373ffffffffffffffffffffffffffffffffffffffff1673ffffffffffffffffffffffffffffffffffffffff16815260200190815260200160002060008282546110579190611ad5565b92505081905550600260019054906101000a900473ffffffffffffffffffffffffffffffffffffffff1673ffffffffffffffffffffffffffffffffffffffff166323b872dd3330856040518463ffffffff1660e01b81526004016110bd93929190611ddd565b6020604051808303816000875af11580156110dc573d6000803e3d6000fd5b505050506040513d601f19601f820116820180604052508101906111009190611c89565b61113f576040517f08c379a000000000000000000000000000000000000000000000000000000000815260040161113690612010565b60405180910390fd5b3373ffffffffffffffffffffffffffffffffffffffff167f1449c6dd7851abc30abf37f57715f492010519147cc2652fbc38202c18a6ee908342604051611187929190611d22565b60405180910390a250611198611577565b50565b6111a36114f0565b6111ab611536565b336111b46113d1565b600681905550436005819055506111ca816103dd565b600860008373ffffffffffffffffffffffffffffffffffffffff1673ffffffffffffffffffffffffffffffffffffffff16815260200190815260200160002081905550600654600760008373ffffffffffffffffffffffffffffffffffffffff1673ffffffffffffffffffffffffffffffffffffffff168152602001908152602001600020819055506000600860003373ffffffffffffffffffffffffffffffffffffffff1673ffffffffffffffffffffffffffffffffffffffff168152602001908152602001600020549050600081116112da576040517f08c379a00000000000000000000000000000000000000000000000000000000081526004016112d19061207c565b60405180910390fd5b6000600860003373ffffffffffffffffffffffffffffffffffffffff1673ffffffffffffffffffffffffffffffffffffffff1681526020019081526020016000208190555080600960003373ffffffffffffffffffffffffffffffffffffffff1673ffffffffffffffffffffffffffffffffffffffff168152602001908152602001600020600082825461136e9190611ad5565b925050819055503373ffffffffffffffffffffffffffffffffffffffff167f820cea42e8517cf1ec6d4e9db93909255f07c45f7eb0a7c7b5a0f8bdcfc2e5bf82426040516113bd929190611d22565b60405180910390a250506113cf611577565b565b6000806113dc6104f7565b036113eb57600654905061143b565b6113f36104f7565b670de0b6b3a76400006004546005544361140d91906119ff565b6114179190611a33565b6114219190611a33565b61142b9190611aa4565b6006546114389190611ad5565b90505b90565b60065481565b61144c611580565b600073ffffffffffffffffffffffffffffffffffffffff168173ffffffffffffffffffffffffffffffffffffffff16036114be5760006040517f1e4fbdf70000000000000000000000000000000000000000000000000000000081526004016114b591906119b5565b60405180910390fd5b6114c78161166a565b50565b600360009054906101000a900473ffffffffffffffffffffffffffffffffffffffff1681565b60026001540361152c576040517f3ee5aeb500000000000000000000000000000000000000000000000000000000815260040160405180910390fd5b6002600181905550565b61153e610da1565b15611575576040517fd93c066500000000000000000000000000000000000000000000000000000000815260040160405180910390fd5b565b60018081905550565b611588611791565b73ffffffffffffffffffffffffffffffffffffffff166115a6610e22565b73ffffffffffffffffffffffffffffffffffffffff1614611605576115c9611791565b6040517f118cdaa70000000000000000000000000000000000000000000000000000000081526004016115fc91906119b5565b60405180910390fd5b565b61160f611799565b6000600260006101000a81548160ff0219169083151502179055507f5db9ee0a495bf2e6ff9c91a7834c1ba4fdd244a5e8aa4e537bd38aeae4b073aa611653611791565b60405161166091906119b5565b60405180910390a1565b60008060009054906101000a900473ffffffffffffffffffffffffffffffffffffffff169050816000806101000a81548173ffffffffffffffffffffffffffffffffffffffff021916908373ffffffffffffffffffffffffffffffffffffffff1602179055508173ffffffffffffffffffffffffffffffffffffffff168173ffffffffffffffffffffffffffffffffffffffff167f8be0079c531659141344cd1fd0a4f28419497f9722a3daafe3b4186f6b6457e060405160405180910390a35050565b611736611536565b6001600260006101000a81548160ff0219169083151502179055507f62e78cea01bee320cd4e420270b5ea74000d11b0c9f74754ebdbfc544b05a25861177a611791565b60405161178791906119b5565b60405180910390a1565b600033905090565b6117a1610da1565b6117d7576040517f8dfc202b00000000000000000000000000000000000000000000000000000000815260040160405180910390fd5b565b600080fd5b600073ffffffffffffffffffffffffffffffffffffffff82169050919050565b6000611809826117de565b9050919050565b611819816117fe565b811461182457600080fd5b50565b60008135905061183681611810565b92915050565b600060208284031215611852576118516117d9565b5b600061186084828501611827565b91505092915050565b6000819050919050565b61187c81611869565b82525050565b60006020820190506118976000830184611873565b92915050565b6118a681611869565b81146118b157600080fd5b50565b6000813590506118c38161189d565b92915050565b6000602082840312156118df576118de6117d9565b5b60006118ed848285016118b4565b91505092915050565b60008115159050919050565b61190b816118f6565b82525050565b60006020820190506119266000830184611902565b92915050565b6000819050919050565b600061195161194c611947846117de565b61192c565b6117de565b9050919050565b600061196382611936565b9050919050565b600061197582611958565b9050919050565b6119858161196a565b82525050565b60006020820190506119a0600083018461197c565b92915050565b6119af816117fe565b82525050565b60006020820190506119ca60008301846119a6565b92915050565b7f4e487b7100000000000000000000000000000000000000000000000000000000600052601160045260246000fd5b6000611a0a82611869565b9150611a1583611869565b9250828203905081811115611a2d57611a2c6119d0565b5b92915050565b6000611a3e82611869565b9150611a4983611869565b9250828202611a5781611869565b91508282048414831517611a6e57611a6d6119d0565b5b5092915050565b7f4e487b7100000000000000000000000000000000000000000000000000000000600052601260045260246000fd5b6000611aaf82611869565b9150611aba83611869565b925082611aca57611ac9611a75565b5b828204905092915050565b6000611ae082611869565b9150611aeb83611869565b9250828201905080821115611b0357611b026119d0565b5b92915050565b600081519050611b188161189d565b92915050565b600060208284031215611b3457611b336117d9565b5b6000611b4284828501611b09565b91505092915050565b600082825260208201905092915050565b7f43616e6e6f742077697468647261772030000000000000000000000000000000600082015250565b6000611b92601183611b4b565b9150611b9d82611b5c565b602082019050919050565b60006020820190508181036000830152611bc181611b85565b9050919050565b7f496e73756666696369656e742062616c616e6365000000000000000000000000600082015250565b6000611bfe601483611b4b565b9150611c0982611bc8565b602082019050919050565b60006020820190508181036000830152611c2d81611bf1565b9050919050565b6000604082019050611c4960008301856119a6565b611c566020830184611873565b9392505050565b611c66816118f6565b8114611c7157600080fd5b50565b600081519050611c8381611c5d565b92915050565b600060208284031215611c9f57611c9e6117d9565b5b6000611cad84828501611c74565b91505092915050565b7f5769746864726177207472616e73666572206661696c65640000000000000000600082015250565b6000611cec601883611b4b565b9150611cf782611cb6565b602082019050919050565b60006020820190508181036000830152611d1b81611cdf565b9050919050565b6000604082019050611d376000830185611873565b611d446020830184611873565b9392505050565b7f52657761726420616d6f756e742073686f756c6420626520677265617465722060008201527f7468616e20300000000000000000000000000000000000000000000000000000602082015250565b6000611da7602683611b4b565b9150611db282611d4b565b604082019050919050565b60006020820190508181036000830152611dd681611d9a565b9050919050565b6000606082019050611df260008301866119a6565b611dff60208301856119a6565b611e0c6040830184611873565b949350505050565b7f5472616e73666572206661696c65640000000000000000000000000000000000600082015250565b6000611e4a600f83611b4b565b9150611e5582611e14565b602082019050919050565b60006020820190508181036000830152611e7981611e3d565b9050919050565b7f4e6f2072657761726420617661696c61626c6500000000000000000000000000600082015250565b6000611eb6601383611b4b565b9150611ec182611e80565b602082019050919050565b60006020820190508181036000830152611ee581611ea9565b9050919050565b7f526577617264207472616e73666572206661696c656400000000000000000000600082015250565b6000611f22601683611b4b565b9150611f2d82611eec565b602082019050919050565b60006020820190508181036000830152611f5181611f15565b9050919050565b7f43616e6e6f74207374616b652030000000000000000000000000000000000000600082015250565b6000611f8e600e83611b4b565b9150611f9982611f58565b602082019050919050565b60006020820190508181036000830152611fbd81611f81565b9050919050565b7f5374616b65207472616e73666572206661696c65640000000000000000000000600082015250565b6000611ffa601583611b4b565b915061200582611fc4565b602082019050919050565b6000602082019050818103600083015261202981611fed565b9050919050565b7f4e6f2072657761726420617661696c61626c6520746f20636f6d706f756e6400600082015250565b6000612066601f83611b4b565b915061207182612030565b602082019050919050565b6000602082019050818103600083015261209581612059565b905091905056fea26469706673582212209e911e49d1942024d098e57ce4ec9284857cda05b0c5a93a8445c9e87fae2b0864736f6c63430008180033",
  "linkReferences": {},
  "deployedLinkReferences": {}
}